:020000040000FA
:39000000FFFF62FF3600FFFFFFFFFFFFFFFFFFFFFFFFFFFFFFFFFFFFFFFFFFFFFFFFFFFFFFFFFFFFFFFFFFFFFFFFFFFFFFFFFFFFFFFFFFFFFFFFFFFFFF65
:39003900000C8001300006C00018000360000C800130000600000000000000000000000000000000300006C00018000360000C8001300006C0001880F948
:390072000012400248000920012480049000124002480009000000000000000000000000000000004800092001248004900012400248000920012480F9A5
:3900AB000000000000000000000000000000000000000000000000000000000000000000000000000000000000000000000000000000000000000080F9A3
:3900E4000000000000000000000000000000000000000000000000000000000000000000000000000000000000000000000000000000000000000080F96A
:39011D000000000000000000000000000000000000000000000000000000000000000000000000000000000000000000000000000000000000000080F930
:390156000000000000000000000000000000000000000000000000000000000000000100000000000000000000000000000000000000000000000080E807
:39018F000000008002020000000000000000000000000000000000000000000000000000000000000000000000000000000000000000000000000080D360
:3901C8000000008004000000000000000000000000000000000000000000000000000000000000000000000000000000000000000000000000000080B149
:390201000000008003000000000000000000000000000000000000000000000000000000000000000000000000000000000000000000000000000080C100
:39023A000000008004000000000000000000000000000000000000000000000000000000000000000000000000000000000000000000000000000080B1D6
:390273000000000002000000000000000000000000000000000000000000000000000000000000000000000000000000000000000000000000000080D9F7
:3902AC000000000005000000000000000000000000000000000000000000000000000000000000000000000000000000000000000000000000000080A9EB
:3902E5000000000002000000000000000000000000000000000000000000000000000000000000000000000000000000000000000000000000000080D985
:39031E000000000004000000000000000000000000000000000000000000000000000000000000000000000000000000000000000000000000000080B969
:390357000000000000000000000000000000000000000000000000000000000000000000000000000000000000000000000000000000000000000080F9F4
:390390000000000000000000000000000000000000000000000000000000000000000000000000000000000000000000000000000000000000000080F9BB
:3903C9000000000000000000000000000000000000000000000000000000000000000000000000000000000000000000000000000000000000000080F982
:390402000800000000000000000000000000000000000000000000000000000000000000000000000000000000000000000000000000000000000020DBBE
:39043B000000000000000000000000000000000000000000000000000000000000000000000000000000000000000000000000000000000000000080F90F
:390474000000000000000000000000000000000000000000000000000000000000000000000000000000000000000000000000000000000000000080F9D6
:3904AD000400000000000000000000000000000000000000000000000000000000000000000000000000000000000000000000000000000000000090ACD6
:3904E6000000000000000000000000000000000000000000000000000000000000000000000000000000000000000000000000000000000000000080F964
:39051F000000000000000000000000000000000000000000000000000000000000000000000000000000000000000000000000000000000000000080F92A
:390558000000000000000000000000000000000000000000000000000000000000000000000000000000000000000000000000000000000000000080F9F1
:390591000000000000000000000000000000000000000000000000000000000000000000000000000000000000000000000000000000000000000080F9B8
:3905CA000800000000000000000000000000000000000000000000000000000000000000000000000000000000000000000000000000000000000020DBF5
:390603000000000000000000000000000000000000000000000000000000000000000000000000000000000000000000000000000000000000000080F945
:39063C000000000000000000000000000000000000000000000000000000000000000000000000000000000000000000000000000000000000000080F90C
:390675000400000000000000000000000000000000000000000000000000000000000000000000000000000000000000000000000000000000000090AC0C
:3906AE000000000000000000000000000000000000000000000000000000000000000000000000000000000000000000000000000000000000000080F99A
:3906E7000000000000000000000000000000000000000000000000000000000000000000000000000000000000000000000000000000000000000080F961
:390720000000000000000000000000000000000000000000000000000000000000000000000000000000000000000000000000000000000000000080F927
:390759000000000000000000000000000000000000000000000000000000000000000000000000000000000000000000000000000000000000000080F9EE
:390792000800000000000000000000000000000000000000000000000000000000000000000000000000000000000000000000000000000000000020DB2B
:3907CB000000000000000000000000000000000000000000000000000000000000000000000000000000000000000000000000000000000000000080F97C
:390804000000000000000000000000000000000000000000000000000000000000000000000000000000000000000000000000000000000000000080F942
:39083D000400000000000000000000000000000000000000000000000000000000000000000000000000000000000000000000000000000000000090AC42
:390876000000000000000000000000000000000000000000000000000000000000000000000000000000000000000000000000000000000000000080F9D0
:3908AF001000000000000000000000000000000000000000000000000000000000000000000000000000000000000000000000000000000000000080F888
:3908E8000000000000000000000000000000000000000000000000000000000000000000000000000000000000000000000000000000000000000080F95E
:390921000000000000000000000000000000000000000000000000000000000000000000000000000000000000000000000000000000000000000080F924
:39095A000C00000000000000000000000000000000000000000000000000000000000000000000000000000000000000000000000000000000000010AC9C
:3909930004000000000000000000000000000000000000000000000000000000000000000000000000000000000000000000000000000000000000B08EE9
:3909CC000000000000000000000000000000000000000000000000000000000000000000000000000000000000000000000000000000000000000080F979
:390A05000C000000000000000000000000000000000000000000000000000000000000000000000000000000000000000000000000000000000000209FED
:390A3E000000000000000000000000000000000000000000000000000000000000000000000000000000000000000000000000000000000000000080F906
:390A77000000000000000000000000000000000000000000000000000000000000000000000000000000000000000000000000000000000000000080F9CD
:390AB0000000000000000000000000000000000000000000000000000000000000000000000000000000000000000000000000000000000000000080F994
:390AE9000000000000000000000000000000000000000000000000000000000000000000000000000000000000000000000000000000000000000080F95B
:390B220004000000000000000000000000000000000000000000000000000000000000000000000000000000000000000000000000000000000000A09F57
:390B5B000C00000000000000000000000000000000000000000000000000000000000000000000000000000000000000000000000000000000000000BD98
:390B94000000000000000000000000000000000000000000000000000000000000000000000000000000000000000000000000000000000000000080F9AF
:390BCD000800000000000000000000000000000000000000000000000000000000000000000000000000000000000000000000000000000000000010E8EF
:390C06000000000000000000000000000000000000000000000000000000000000000000000000000000000000000000000000000000000000000080F93C
:390C3F000000000000000000000000000000000000000000000000000000000000000000000000000000000000000000000000000000000000000080F903
:390C78000000000000000000000000000000000000000000000000000000000000000000000000000000000000000000000000000000000000000080F9CA
:390CB1000000000000000000000000000000000000000000000000000000000000000000000000000000000000000000000000000000000000000080F991
:390CEA000800000000000000000000000000000000000000000000000000000000000000000000000000000000000000000000000000000000000020DBCE
:390D23000000000000000000000000000000000000000000000000000000000000000000000000000000000000000000000000000000000000000080F91E
:390D5C000000000000000000000000000000000000000000000000000000000000000000000000000000000000000000000000000000000000000080F9E5
:390D95000400000000000000000000000000000000000000000000000000000000000000000000000000000000000000000000000000000000000090ACE5
:390DCE000000000000000000000000000000000000000000000000000000000000000000000000000000000000000000000000000000000000000080F973
:390E07000000000000000000000000000000000000005008010000000000000000000000000000000000000000000000000000000000000000000000F564
:390E40000000000000000000000000000000000000009000000000000000000000000000000000000000000000000000000000000000000000000080F079
:390E79000000000000000000000000000000000000007000000000000000000000000000000000000000000000000000000000000000000000000080FE52
:390EB20004000000000000000000000000000000000090000000000000000000000000000000000000000000000000000000000000000000000000A0963D
:390EEB000C00000000000000000000000000000000004000000000000000000000000000000000000000000000000000000000000000000000000000B9C9
:390F2400000000000000000000000000000000000000A000000000000000000000000000000000000000000000000000000000000000000000000080F381
:390F5D000800000000000000000000000000000000004000000000000000000000000000000000000000000000000000000000000000000000000010EC17
:390F96000000000000000000000000000000000000008000000000000000000000000000000000000000000000000000000000000000000000000080F131
:390FCF001000000040080000000000000000000000000010000000000000000000000000000000000000000000000000000000000000000000000080A55C
:391008002000048000100002400008000120000480001000000000000000000000000000000000800010000240000800012000048000100002400080F9B2
:391041000000000000000000000000000000000000000000000000000000000000000000000000000000000000000000000000000000000000000080F9FD
:39107A002C000400001000024000080001200004800000000000000000000000000000000000008000100002400008000120000480001000024000209687
:3910B3000400000004000000000000000000000000008000000000000000000000000000000000000000000000000000000000000000000000000080F507
:3910EC002000040000100002400008000120000480000000000000000000000000000000000000800010000240000800012000048000100002400080F067
:391125000C00000000000000000000000000000000000000000000000000000000000000000000000000000000000000000000000000000000000010ACC9
:39115E002000040002100002400008000120000480004000000000000000000000000000000000800010000240000800012000048000100002400080D4CE
:391197000000000000000000000000000000000000000000000000000000000000000000000000000000000000000000000000000000000000000080F9A6
:3911D0000000000000000000000000000000000000000000000000000000000000000000000000000000000000000000000000000000000000000080F96D
:391209000000000000000000000000000000000000000000000000000000000000000000000000000000000000000000000000000000000000000080F933
:391242000000000000000000000000000000000000000000000000000000000000000000000000000000000000000000000000000000000000000080F9FA
:39127B000200000000000000000000000000000000000000000000000000000000000000000000000000000000000000000000000000000000000080DBDD
:3912B4000000000000000000000000000000000000000000000000000000000000000000000000000000000000000000000000000000000000000080F988
:3912ED000000000000000000000000000000000000000000000000000000000000000000000000000000000000000000000000000000000000000080F94F
:391326000000000000000000000000000000000000000000000000000000000000000000000000000000000000000000000000000000000000000080F915
:39135F000000000000000000000000000000000000000000000000000000000000000000000000000000000000000000000000000000000000000080F9DC
:391398000000000000400100000000000000000000000000000000000000000000000000000000000000000000000000000000000000000000000080A8B3
:3913D1000000000000400000000000000000000000000000000000000000000000000000000000000000000000000000000000000000000000000080B96A
:39140A000200000000000000000000000000000000000000000000000000000000000000000000000000000000000000000000000000000000000080DB4C
:391443000000000000000000000000000000000000000000000000000000000000000000000000000000000000000000000000000000000000000080F9F7
:39147C000000000000000000000000000000000000000000000000000000000000000000000000000000000000000000000000000000000000000080F9BE
:3914B5000000000000000000000000000000000000000000000000000000000000000000000000000000000000000000000000000000000000000080F985
:3914EE000000000000000000000000000000000000000000000000000000000000000000000000000000000000000000000000000000000000000080F94C
:391527000000000000000000000000000000000000000000000000000000000000000000000000000000000000000000000000000000000000000080F912
:391560000000000000000000000000000000000000000000000000000000000000000000000000000000000000000000000000000000000000000080F9D9
:391599000000000000000000000000000000000000000000000000000000000000000000000000000000000000000000000000000000000000000080F9A0
:3915D2000000000000000000000000000000000000000000000000000000000000000000000000000000000000000000000000000000000000000080F967
:39160B000000000000000000000000000000000000000000000000000000000000000000000000000000000000000000000000000000000000000080F92D
:391644000000000000040000000000000000000000000000000000000000000000000000000000000000000000000000000000000000000000000080FDEC
:39167D000200000000000000000000000000000000000000000000000000000000000000000000000000000000000000000000000000000000000080DBD7
:3916B6000000000000000000000000000000000000000000000000000000000000000000000000000000000000000000000000000000000000000080F982
:3916EF000000000000000000000000000000000000000000000000000000000000000000000000000000000000000000000000000000000000000008F1C9
:3917280000000000000000000000000000000000000A0000000000000000000000000000000000000000000000000000000000000000000000000080F30B
:391761000000000000000000000000000000000000020000000000000000000000000000000000000000000000000000000000000000000000000080FBD2
:39179A000000000000000000000000000000000000000000000000000000000000000000000000000000000000000000000000000000000000000080F99D
:3917D3000000000001000000000000000000000000000000000000000000000000000000000000000000000000000000000000000000000000000080E973
:39180C000000000000000000000000000000000000001080000000000000000000000000000000000000000000000000000000000000000000000000F81B
:391845000000000000000000000000000000000000000000000000000000000000000000000000000000000000000000000000000000000000000080F9F1
:39187E000000000000000000000000000000000000000000000000000000000000000000000000000000000000000000000000000000000000000080F9B8
:3918B7001400000000000000000000000000000000000000000000000000000000000000000000000000000000000000000000000000000000000080BCA8
:3918F0000000000000000000000000000000000000000000000000000000000000000000000000000000000000000000000000000000000000000080F946
:391929000000000000000000000000000000000000000000000000000000000000000000000000000000000000000000000000000000000000000080F90C
:391962000000000000000000000000000000000000000000000000000000000000000000000000000000000000000000000000000000000000000080F9D3
:39199B000000000000000000000000000000000000000000000000000000000000000000000000000000000000000000000000000000000000000080F99A
:3919D4000000000000000000000000000000000000000000000000000000000000000000000000000000000000000000000000000000000000000080F961
:391A0D000000000000000000000000000000000000000000000000000000000000000000000000000000000000000000000000000000000000000080F927
:391A46000000000000000000000000000000000000000000000000000000000000000000000000000000000000000000000000000000000000000080F9EE
:391A7F000000000000000000000000000000000000000000000000000000000000000000000000000000000000000000000000000000000000000080F9B5
:391AB8000000000000000000000000000000000000000000000000000000000000000000000000000000000000000000000000000000000000000080F97C
:391AF1000000000000000000000000000000000000000000000000000000000000000000000000000000000000000000000000000000000000000080F943
:391B2A000000000000000000000000000000000000000000000000000000000000000000000000000000000000000000000000000000000000000080F909
:391B63000000000000000000000000000000000000000000000000000000000000000000000000000000000000000000000000000000000000000080F9D0
:391B9C000000000000000000000000000000000000000000000000000000000000000000000000000000000000000000000000000000000000000080F997
:391BD5000000000000000000000000000000000000000000000000000000000000000000000000000000000000000000000000000000000000000080F95E
:391C0E000000000000000000000000000000000000000000000000000000000000000000000000000000000000000000000000000000000000000080F924
:391C47000000000000000000000000000000000000000000000000000000000000000000000000000000000000000000000000000000000000000080F9EB
:391C80000000000000000000000000000000000000000000000000000000000000000000000000000000000000000000000000000000000000000080F9B2
:391CB9000000000000000000000000000000000000000000000000000000000000000000000000000000000000000000000000000000000000000080F979
:391CF2000800000000000000000000000000000000000000000000000000000000000000000000000000000000000000000000000000000000000020DBB6
:391D2B000000000000000000000000000000000000000000000000000000000000000000000000000000000000000000000000000000000000000080F906
:391D64000000000000000000000000000000000000000000000000000000000000000000000000000000000000000000000000000000000000000080F9CD
:391D9D000400000000000000000000000000000000000000000000000000000000000000000000000000000000000000000000000000000000000090ACCD
:391DD6000000000000000000000000000000000000000000000000000000000000000000000000000000000000000000000000000000000000000080F95B
:391E0F000000000000000000000000000000000000000000000000000000000000000000000000000000000000000000000000000000000000000080F921
:391E48000000000000000000000000000000000000000000000000000000000000000000000000000000000000000000000000000000000000000080F9E8
:391E81000000000000000000000000000000000000000000000000000000000000000000000000000000000000000000000000000000000000000080F9AF
:391EBA000800000000000000000000000000000000000000000000000000000000000000000000000000000000000000000000000000000000000020DBEC
:391EF3000000000000000000000000000000000000000000000000000000000000000000000000000000000000000000000000000000000000000080F93D
:391F2C000000000000000000000000000000000000000000000000000000000000000000000000000000000000000000000000000000000000000080F903
:391F65000400000000000000000000000000000000000000000000000000000000000000000000000000000000000000000000000000000000000090AC03
:391F9E000000000000000000000000000000000000000000000000000000000000000000000000000000000000000000000000000000000000000080F991
:391FD7000000000000000000000000000000000000000000000000000000000000000000000000000000000000000000000000000000000000000080F958
:392010000000000000000000000000000000000000000000000000000000000000000000000000000000000000000000000000000000000000000080F91E
:392049000000000000000000000000000000000000000000000000000000000000000000000000000000000000000000000000000000000000000080F9E5
:392082000800000000000000000000000000000000000000000000000000000000000000000000000000000000000000000000000000000000000020DB22
:3920BB000000000000000000000000000000000000000000000000000000000000000000000000000000000000000000000000000000000000000080F973
:3920F4000000000000000000000000000000000000000000000000000000000000000000000000000000000000000000000000000000000000000080F93A
:39212D000400000000000000000000000000000000000000000000000000000000000000000000000000000000000000000000000000000000000090AC39
:392166000000000000000000000000000000000000000000000000000000000000000000000000000000000000000000000000000000000000000080F9C7
:39219F000000000000000000000000000000000000000000000000000000000000000000000000000000000000000000000000000000000000000080F98E
:3921D8000000000000000000000000000000000000000000000000000000000000000000000000000000000000000000000000000000000000000080F955
:392211000000000000000000000000000000000000000000000000000000000000000000000000000000000000000000000000000000000000000080F91B
:39224A000800000000000000000000000000000000000000000000000000000000000000000000000000000000000000000000000000000000000020DB58
:392283000000000000000000000000000000000000000000000000000000000000000000000000000000000000000000000000000000000000000080F9A9
:3922BC000000000000000000000000000000000000000000000000000000000000000000000000000000000000000000000000000000000000000080F970
:3922F5000400000000000000000000000000000000000000000000000000000000000000000000000000000000000000000000000000000000000090AC70
:39232E000000000000000000000000000000000000000000000000000000000000000000000000000000000000000000000000000000000000000080F9FD
:392367000000000000000000000000000000000000005080000000000000000000000000000000000000000000000000000000000000000000000000FC71
:3923A0000000000000000000000000000000000000009000000000000000000000000000000000000000000000000000000000000000000000000080F004
:3923D9000000000000000000000000000000000000007000000000000000000000000000000000000000000000000000000000000000000000000080FEDD
:392412000800000000000000000000000000000000009000000000000000000000000000000000000000000000000000000000000000000000000020D207
:39244B000000000000000000000000000000000000004000000000000000000000000000000000000000000000000000000000000000000000000080FD9B
:39248400000000000000000000000000000000000000A000000000000000000000000000000000000000000000000000000000000000000000000080F30C
:3924BD000400000000000000000000000000000000004000000000000000000000000000000000000000000000000000000000000000000000000090A86A
:3924F6000000000000000000000000000000000000008000000000000000000000000000000000000000000000000000000000000000000000000080F1BC
:39252F001000000000000000000000000000000000000000000000000000000000000000000000000000000000000000000000000000000000000080F8EB
:392568000000000000000000000000000000000000000000000000000000000000000000000000000000000000000000000000000000000000000080F9C1
:3925A1000000000000000000000000000000000000000000000000000000000000000000000000000000000000000000000000000000000000000080F988
:3925DA000C000000000000000000000000000000000000000000000000000000000000000000000000000000000000000000000000000000000000209FFD
:392613000400000000000000000000000000000000000000000000000000000000000000000000000000000000000000000000000000000000000080BD4D
:39264C000000000000000000000000000000000000000000000000000000000000000000000000000000000000000000000000000000000000000080F9DC
:392685000C00000000000000000000000000000000000000000000000000000000000000000000000000000000000000000000000000000000000010AC54
:3926BE000000000000000000000000000000000000000000000000000000000000000000000000000000000000000000000000000000000000000080F96A
:3926F7000000000000000000000000000000000000000000000000000000000000000000000000000000000000000000000000000000000000000080F931
:392730000000000000000000000000000000000000000000000000000000000000000000000000000000000000000000000000000000000000000080F9F7
:392769000000000000000000000000000000000000000000000000000000000000000000000000000000000000000000000000000000000000000080F9BE
:3927A2000800000000000000000000000000000000000000000000000000000000000000000000000000000000000000000000000000000000000020DBFB
:3927DB000000000000000000000000000000000000000000000000000000000000000000000000000000000000000000000000000000000000000080F94C
:392814000000000000000000000000000000000000000000000000000000000000000000000000000000000000000000000000000000000000000080F912
:39284D000400000000000000000000000000000000000000000000000000000000000000000000000000000000000000000000000000000000000090AC12
:392886000000000000000000000000000000000000000000000000000000000000000000000000000000000000000000000000000000000000000080F9A0
:3928BF000000000000000000000000000000000000000000000000000000000000000000000000000000000000000000000000000000000000000080F967
:3928F8002000048000100002400008000120000480001000000000000000000000000000000000800010000240000800012000048000100002400080F9AA
:392931000000000000000000000000000000000000002000000000000000000000000000000000000000000000000000000000000000000000000080FBD2
:39296A0024000480001000024000080001200004800000000000000000000000000000000000008000100002400008000120000480001000024000A09E7E
:3929A3000C00000000000000000000000000000000008000000000000000000000000000000000000000000000000000000000000000000000000000B5BA
:3929DC002000048000100002400008000120000480000000000000000000000000000000000000800010000240000800012000048000100002400080F8D6
:392A15000800000000000000000000000000000000000000000000000000000000000000000000000000000000000000000000000000000000000010E888
:392A4E002000048000100002400008000120000480004000000000000000000000000000000000800010000240000800012000048000100002400080FC1F
:392A87000000000000000000000000000000000000000000000000000000000000000000000000000000000000000000000000000000000000000080F99D
:392AC0000000000000000000000000000000000000000000000000000000000000000000000000000000000000000000000000000000000000000080F964
:392AF9000000000000000000000000000000000000000000000000000000000000000000000000000000000000000000000000000000000000000080F92B
:392B32000000000000000000000000000000000000000000000000000000000000000000000000000000000000000000000000000000000000000080F9F1
:392B6B000000000000000000000000000000000000000000000000000000000000000000000000000000000000000000000000000000000000000080F9B8
:392BA4000000000000000000000000000000000000000000000000000000000000000000000000000000000000000000000000000000000000000080F97F
:392BDD000000000000000000000000000000000000000000000000000000000000000000000000000000000000000000000000000000000000000080F946
:392C16000000000000000000000000000000000000000000000000000000000000000000000000000000000000000000000000000000000000000080F90C
:392C4F000000000000000000000000000000000000000000000000000000000000000000000000000000000000000000000000000000000000000080F9D3
:392C88000000000000000000000000000000000000000000000000000000000000000000000000000000000000000000000000000000000000000080F99A
:392CC1000000000000000000000000000000000000000000000000000000000000000000000000000000000000000000000000000000000000000080F961
:392CFA000000000000000000000000000000000000000000000000000000000000000000000000000000000000000000000000000000000000000080F928
:392D33000000000000000000000000000000000000000000000000000000000000000000000000000000000000000000000000000000000000000080F9EE
:392D6C000000000000000000000000000000000000000000000000000000000000000000000000000000000000000000000000000000000000000080F9B5
:392DA5000000000000000000000000000000000000000000000000000000000000000000000000000000000000000000000000000000000000000080F97C
:392DDE000000000000000000000000000000000000000000000000000000000000000000000000000000000000000000000000000000000000000080F943
:392E17000000000000000000000000000000000000000000000000000000000000000000000000000000000000000000000000000000000000000080F909
:392E50000000000000000000000000000000000000000000000000000000000000000000000000000000000000000000000000000000000000000080F9D0
:392E89000000000000000000000000000000000000000000000000000000000000000000000000000000000000000000000000000000000000000080F997
:392EC2000000000000000000000000000000000000000000000000000000000000000000000000000000000000000000000000000000000000000080F95E
:392EFB000000000000000000000000000000000000000000000000000000000000000000000000000000000000000000000000000000000000000080F925
:392F34000000000000000000000000000000000000000000000000000000000000000000000000000000000000000000000000000000000000000080F9EB
:392F6D000000000000000000000000000000000000000000000000000000000000000000000000000000000000000000000000000000000000000080F9B2
:392FA6000000000000000000000000000000000000000000000000000000000000000000000000000000000000000000000000000000000000000080F979
:392FDF000000000000000000000000000000000000000000000000000000000000000000000000000000000000000000000000000000000000000080F940
:393018000800000000000000000000000000000000000010000000000000000000000000000000000000000000000000000000000000000000000000E87F
:393051000000000000000000000000000000000000000000000000000000000000000000000000000000000000000000000000000000000000000080F9CD
:39308A000000000000000000000000000000000000000020000000000000000000000000000000000000000000000000000000000000000000000080DB92
:3930C3000000000000000000000000000000000000000000000000000000000000000000000000000000000000000000000000000000000000000080F95B
:3930FC000000000000000000000000000000000000000000000000000000000000000000000000000000000000000000000000000000000000000080F922
:393135000000000000000000000000000000000000000000000000000000000000000000000000000000000000000000000000000000000000000080F9E8
:39316E000000000000000000000000000000000000000000000000000000000000000000000000000000000000000000000000000000000000000080F9AF
:3931A7000200000000000000000000000000000000000000000000000000000000000000000000000000000000000000000000000000000000000080DB92
:3931E0000800000000000000000000000000000000000000000000000000000000000000000000000000000000000000000000000000000000000000F9B5
:393219000000000000000000000000000000000000000000000000000000000000000000000000000000000000000000000000000000000000000080F903
:393252000000000000000000000000000000000000000000000000000000000000000000000000000000000000000000000000000000000000000080F9CA
:39328B000000000000000000000000000000000000000000000000000000000000000000000000000000000000000000000000000000000000000080F991
:3932C4000000000000000000000000000000000000000000000000000000000000000000000000000000000000000000000000000000000000000080F958
:3932FD000000000000000000000000000000000000000002000000000000000000000000000000000000000000000000000000000000000000000080D93D
:393336000000000000000000000000000000000000000000000000000000000000000000000000000000000000000000000000000000000000000080F9E5
:39336F000000000000000000000000000000000000000000000000000000000000000000000000000000000000000000000000000000000000000080F9AC
:3933A8000000000000000000000000000000000000000000000000000000000000000000000000000000000000000000000000000000000000000080F973
:3933E1000000000000000000000000000000000000000000000000000000000000000000000000000000000000000000000000000000000000000080F93A
:39341A000000000000000000000000000000000000000000000000000000000000000000000000000000000000000000000000000000000000000080F900
:393453000000000000000000000000000000000000000000000000000000000000000000000000000000000000000000000000000000000000000080F9C7
:39348C000000000000000000000000000000000000000000000000000000000000000000000000000000000000000000000000000000000000000080F98E
:3934C5000000000000000000000000000000000000000000000000000000000000000000000000000000000000000000000000000000000000000080F955
:3934FE000000000000000000000000000000000000000000000000000000000000000000000000000000000000000000000000000000000000000080F91C
:393537000000000000000000000000000000000000000000000000000000000000000000000000000000000000000000000000000000000000000080F9E2
:393570000000000000000000000000000000000000000000000000000000000000000000000000000000000000000000000000000000000000000080F9A9
:3935A9000000000000000000000000000000000000000000000000000000000000000000000000000000000000000000000000000000000000000080F970
:3935E20004000000000000000000000000000000000000000000000000000000000000000000000000000000000000000000000000000000000000A09F6D
:39361B000C00000000000000000000000000000000000000000000000000000000000000000000000000000000000000000000000000000000000000BDAD
:393654000000000000000000000000000000000000000000000000000000000000000000000000000000000000000000000000000000000000000080F9C4
:39368D000800000000000000000000000000000000000000000000000000000000000000000000000000000000000000000000000000000000000010E804
:3936C6000000000000000000000000000000000000000000000000000000000000000000000000000000000000000000000000000000000000000080F952
:3936FF000000000000000000000000000000000000000000000000000000000000000000000000000000000000000000000000000000000000000080F919
:393738000000000000000000000000000000000000000000000000000000000000000000000000000000000000000000000000000000000000000080F9DF
:393771000000000000000000000000000000000000000000000000000000000000000000000000000000000000000000000000000000000000000080F9A6
:3937AA000800000000000000000000000000000000000000000000000000000000000000000000000000000000000000000000000000000000000020DBE3
:3937E3000000000000000000000000000000000000000000000000000000000000000000000000000000000000000000000000000000000000000080F934
:39381C000000000000000000000000000000000000000000000000000000000000000000000000000000000000000000000000000000000000000080F9FA
:393855000400000000000000000000000000000000000000000000000000000000000000000000000000000000000000000000000000000000000090ACFA
:39388E000000000000000000000000000000000000000000000000000000000000000000000000000000000000000000000000000000000000000080F988
:3938C70000000000005042000000000000000000000000000000000000000000000000000000000000000000000000000000000000000000000000808F27
:393900000000000000900000000000000000000000000000000000000000000000000000000000000000000000000000000000000000000000000000E11D
:39393900000000000070000000000000000000000000000000000000000000000000000000000000000000000000000000000000000000000000008089DC
:3939720008000000009000000000000000000000000000000000000000000000000000000000000000000000000000000000000000000000000000A0C321
:3939AB000000000000400000000000000000000000000000000000000000000000000000000000000000000000000000000000000000000000000080B96A
:3939E4000000000000A00000000000000000000000000000000000000000000000000000000000000000000000000000000000000000000000000000D139
:393A1D000400000000400000000000000000000000000000000000000000000000000000000000000000000000000000000000000000000000000090ECB0
:393A56000000000000800000000000000000000000000000000000000000000000000000000000000000000000000000000000000000000000000000F1C6
:393A8F001000000000000000000000000000000000000000000000000000000000000000000000000000000000000000000000000000000000000080F876
:393AC8000000000000000000000000000000000000000000000000000000000000000000000000000000000000000000000000000000000000000080F94C
:393B01000000000000000000000000000000000000000000000000000000000000000000000000000000000000000000000000000000000000000080F912
:393B3A000C00000000000000000000000000000000000000000000000000000000000000000000000000000000000000000000000000000000000010AC8A
:393B730004000000000000000000000000000000000000000000000000000000000000000000000000000000000000000000000000000000000000B08ED7
:393BAC000000000000000000000000000000000000000000000000000000000000000000000000000000000000000000000000000000000000000080F967
:393BE5000C000000000000000000000000000000000000000000000000000000000000000000000000000000000000000000000000000000000000209FDC
:393C1E000000000000000000000000000000000000000000000000000000000000000000000000000000000000000000000000000000000000000080F9F4
:393C57000000000000000000000000000000000000000000000000000000000000000000000000000000000000000000000000000000000000000080F9BB
:393C90000000000000000000000000000000000000000000000000000000000000000000000000000000000000000000000000000000000000000080F982
:393CC9000000000000000000000000000000000000000000000000000000000000000000000000000000000000000000000000000000000000000080F949
:393D02000800000000000000000000000000000000000000000000000000000000000000000000000000000000000000000000000000000000000020DB85
:393D3B000000000000000000000000000000000000000000000000000000000000000000000000000000000000000000000000000000000000000080F9D6
:393D74000000000000000000000000000000000000000000000000000000000000000000000000000000000000000000000000000000000000000080F99D
:393DAD000400000000000000000000000000000000000000000000000000000000000000000000000000000000000000000000000000000000000090AC9D
:393DE6000000000000000000000000000000000000000000000000000000000000000000000000000000000000000000000000000000000000000080F92B
:393E1F00000000000000000000000000000000000000000000000000000000000000000000000000000000000000000000A0100000000000000000C0A654
:393E58000000000000000000000000000000000000000000000000000000000000000000000000000000000000000000002001010000000000000080EAA5
:393E9100000000000000000000000000000000000000000000000000000000000000000000000000000000000000000000E000000000000000000080F7A1
:393ECA0004000000000000000000000000000000000000000000000000000000000000000000000000000000000000000020010000000000000000B09C4E
:393F03000C00000000000000000000000000000000000000000000000000000000000000000000000000000000000000008000000000000000000010A445
:393F3C000000000000000000000000000000000000000000000000000000000000000000000000000000000000000000004001000000000000000080ED9E
:393F75000800000000000000000000000000000000000000000000000000000000000000000000000000000000000000008000000000000000000030C299
:393FAE000000000000000000000000000000000000000000000000000000000000000000000000000000000000000000000001000000000000000080E970
:393FE700000000000000000000000000000000000000000000000000000000000000000000000000000000000000000000000000000000000A080000D9B6
:394020000000000000000000000000000000000000000000000000000000000000000000000000000000000000000000000000000000000012000080C80D
:39405900000000000000000000000000000000000000000000000000000000000000000000000000000000000000000000000000000000000E000000918F
:3940920004000000000000000000000000000000000000000000000000000000000000000000000000000000000000000000000000000000120000A0AE91
:3940CB000C00000000000000000000000000000000000000000000000000000000000000000000000000000000000000000000000000000008000080B573
:394104000000000000000000000000000000000000000000000000000000000000000000000000000000000000000000000000000000000014000080A846
:39413D000800000000000000000000000000000000000000000000000000000000000000000000000000000000000000000000000000000008000090E0C9
:394176000000000000000000000000000000000000000000000000000000000000000000000000000000000000000000000000000000000010000080E898
:3941AF0000000000000000000000000000000000000000000000000000000000000000000000000000000000000000000000100200000000000000C0AE57
:3941E8002000048000100002400008000120000480001000000000000000000000000000000000800010000240000800012000048000100002400080F9A1
:394221000000000000000000000000000000000000000000000000000000000000000000000000000000000000000000000000000000000008000000F16B
:39425A002800048000200002400008000120000480001000000000000000000000000000000000800010000240000800010000048000100000400030D8A9
:394293000000000000800000000000000000000000000000000000000000000000000000000000000000000000000000000001000000000010000010E170
:3942CC002000048000000002400008000120000480001000000000000000000000000000000000800010000240000800010000048000100000400080CB1C
:3943050004000000000000000000000000000000000000000000000000000000000000000000000000000000000000000000000000000000000000B08E3D
:39433E0020000480004000024000080001200004800010000000000000000000000000000000008000100002400008000180000480001000084000008BA1
:394377000000000000000000000000000000000000000000000000000000000000000000000000000000000000000000000000000000000000000080F994
:3943B0000000000000000000000000000000000000000000000000000000000000000000000000000000000000000000000000000000000000000080F95B
:3943E9000000000000000000000000000000000000000000000000000000000000000000000000000000000000000000000000000000000000000080F922
:394422000000000000000000000000000000000000000000000000000000000000000000000000000000000000000000000000000000000000000080F9E8
:39445B000000000000000000000000000000000000000000000000000000000000000000000000000000000000000000000000000000000000000080F9AF
:394494000000000000000000000000000000000000000000000000000000000000000000000000000000000000000000000000000000000000000080F976
:3944CD000000000000000000000000000000000000000000000000000000000000000000000000000000000000000000000000000000000000000080F93D
:394506000200000000000000000000000000000000000000000000000000000000000000000000000000000000000000000000000000000000000080DB1F
:39453F000000000000000000000000000000000000000000000000000000000000000000000000000000000000000000000000000000000000000080F9CA
:39457800000000000A000000000000000000000000000000000000000000000000000000000000000000000000000000000000000000000000000000D12F
:3945B1000000000002000000000000000000000000000000000000000000000000000000000000000000000000000000000000000000000000000080D976
:3945EA000200000000000000000000000000000000000000000000000000000000000000000000000000000000000000000000000000000000000080DB3B
:394623000000000000000000000000000000000000000000000000000000000000000000000000000000000000000000000000000000000000000080F9E5
:39465C000000000000000000000000000000000000000000000000000000000000000000000000000000000000000000000000000000000000000080F9AC
:394695000000000000000000000000000000000000000000000000000000000000000000000000000000000000000000000000000000000000000080F973
:3946CE000000000000000000000000000000000000000000000000000000000000000000000000000000000000000000000000000000000000000080F93A
:394707000000000000000000000000000000000000000000000000000000000000000000000000000000000000000000000000000000000000000080F900
:394740000000000000000000000000000000000000000000000000000000000000000000000000000000000000000000000000000000000000000080F9C7
:394779000000000000000000000000000000000000000000000000000000000000000000000000000000000000000000000000000000000000000080F98E
:3947B2000000000000000000000000000000000000000000000000000000000000000000000000000000000000000000000000000000000000000080F955
:3947EB000000000000400000000000000000000000000000000000000000000000000000000000000000000000000000000000000000000000000080B91C
:394824000000000000000000000000000000000000000000000000000000000000000000000000000000000000000000000000000000000000000080F9E2
:39485D000000000000000000000000000000000000000000000000000000000000000000000000000000000000000000000000000000000000000008F129
:394896000000000000000000000000000000000000000000000000000000000000000000000000000000000000000000000000000000000000000080F970
:3948CF001000000000000000000000000000000000000000000000000000000000000000000000000000000000000000000000000000000000000008F0A8
:394908000000000000000000000000000000000000000000000000000000000000000000000000000000000000000000000000000A000000080000A0F1D3
:394941000000000000000000000000000000000000000000000000000000000000000000000000000000000000000000000000000800000008000080F1BC
:39497A000000000000000000000000000000000000000000000000000000000000000000000000000000000000000000000000000000000000000080F98B
:3949B3000000000000000000000000000000000000000000000000000000000000000000000000000000000000000000000000000000000004000080B98E
:3949EC000000000000000000000000000000000000000000000000000000000000000000000000000000000000000000000000010000000000000080F819
:394A25000000000000000000000000000000000000000000000000000000000000000000000000000000000000000000000000000000000000000080F9DF
:394A5E000000000000000000000000000000000000000000000000000000000000000000000000000000000000000000000000000000000000000080F9A6
:394A97000C00000000000000000000000000000000000000000000000000000000000000000000000000000000000000000000000000000000000000BD1D
:394AD0000000000000000000000000000000000000000000000000000000000000000000000000000000000000000000000000000000000000000080F934
:394B09000000000000000000000000000000000000000000000000000000000000000000000000000000000000000000000000000000000000000080F9FA
:394B42000000000000000000000000000000000000000000000000000000000000000000000000000000000000000000000000000000000000000080F9C1
:394B7B000000000000000000000000000000000000000000000000000000000000000000000000000000000000000000000000000000000000000080F988
:394BB4000000000000000000000000000000000000000000000000000000000000000000000000000000000000000000000000000000000000000080F94F
:394BED000000000000000000000000000000000000000000000000000000000000000000000000000000000000000000000080000000000000000020DB14
:394C26000000000000000000000000000000000000000000000000000000000000000000000000000000000000000000000000000000000000000080F9DC
:394C5F000000000000000000000000000000000000000000000000000000000000000000000000000000000000000000000000000000000000000080F9A3
:394C98000000000000000000000000000000000000000000000000000000000000000000000000000000000000000000000000000000000000000080F96A
:394CD1000000000000000000000000000000000000000000000000000000000000000000000000000000000000000000000000000000000000000080F931
:394D0A000000000000000000000000000000000000000000000000000000000000000000000000000000000000000000000000000000000000000080F9F7
:394D43000012400248000920012480049000124002480009000000000000000000000000000000004800092001248004900012400248000920012480F987
:394D7C00000C8001300006C00018000360000C800130000600000000000000000000000000000000300006C00018000360000C8001300006C0001880F9B8
:024DB500FFFFFE
:00000001FF
