:020000040000FA
:39000000FFFF62FF3600FFFFFFFFFFFFFFFFFFFFFFFFFFFFFFFFFFFFFFFFFFFFFFFFFFFFFFFFFFFFFFFFFFFFFFFFFFFFFFFFFFFFFFFFFFFFFFFFFFFFFF65
:39003900000C3401304006C84013680260024C800130000600000000000000000000000000000000300006C00018000360000C8001300006C0001880F170
:390072000012A00248800B70012A4005D0013A4002480009000000000000000000000000000000004800092001248004900012400248000920012480F14B
:3900AB000000000000000000000000000000000000000000000000000000000000000000000000000000000000000000000000000000000000000080F9A3
:3900E4000000000000000000000000000000000000000000000000000000000000000000000000000000000000000000000000000000000000000080F96A
:39011D000000000000A00010000000000001200000000000000000000000000000000000000000000000000000000000000000000000000000000000F0E8
:390156000000000000000240020000000120000000000000000000000000000000000100000000000000000000000000000000000000000000000080BFCB
:39018F000000000000000000000000000000000000000000000000000000000000000000000000000000000000000000000000000000000000000080F9BE
:3901C8000000000000000000000000000000000000000000000000000000000000000000000000000000000000000000000000000000000000000080F985
:390201000000000000000000000000000000000000000000000000000000000000000000000000000000000000000000000000000000000000000080F94B
:39023A000000000000000000000000000000000000000000000000000000000000000000000000000000000000000000000000000000000000000080F912
:390273000000000000000000000000000000000000000000000000000000000000000000000000000000000000000000000000000000000000000080F9D9
:3902AC000000000000000000000000000000000000000000000000000000000000000000000000000000000000000000000000000000000000000080F9A0
:3902E5000000000000000000000000000000000000000000000000000000000000000000000000000000000000000000000000000000000000000080F967
:39031E000000000000000000000000000000000000000000000000000000000000000000000000000000000000000000000000000000000000000080F92D
:390357000000000000000000000000000000000000000000000000000000000000000000000000000000000000000000000000000000000000000080F9F4
:390390000000000000000000000000000000000000000000000000000000000000000000000000000000000000000000000000000000000000000080F9BB
:3903C9000000000000000000000000000000000000000000000000000000000000000000000000000000000000000000000000000000000000000080F982
:390402000800000000000000000000000000000000000000000000000000000000000000000000000000000000000000000000000000000000000020DBBE
:39043B000000000000000000000000000000000000000000000000000000000000000000000000000000000000000000000000000000000000000080F90F
:390474000000000000000000000000000000000000000000000000000000000000000000000000000000000000000000000000000000000000000080F9D6
:3904AD000400000000000000000000000000000000000000000000000000000000000000000000000000000000000000000000000000000000000090ACD6
:3904E6000000000000000000000000000000000000000000000000000000000000000000000000000000000000000000000000000000000000000080F964
:39051F000000000000000000000000000000000000000000000000000000000000000000000000000000000000000000000000000000000000000080F92A
:390558000000000000000000000000000000000000000000000000000000000000000000000000000000000000000000000000000000000000000080F9F1
:390591000000000000000000000000000000000000000000000000000000000000000000000000000000000000000000000000000000000000000080F9B8
:3905CA000800000000000000000000000000000000000000000000000000000000000000000000000000000000000000000000000000000000000020DBF5
:390603000000000000000000000000000000000000000000000000000000000000000000000000000000000000000000000000000000000000000080F945
:39063C000000000000000000000000000000000000000000000000000000000000000000000000000000000000000000000000000000000000000080F90C
:390675000400000000000000000000000000000000000000000000000000000000000000000000000000000000000000000000000000000000000090AC0C
:3906AE000000000000000000000000000000000000000000000000000000000000000000000000000000000000000000000000000000000000000080F99A
:3906E7000000000000000000000000000000000000000000000000000000000000000000000000000000000000000000000000000000000000000080F961
:390720000000000000000000000000000000000000000000000000000000000000000000000000000000000000000000000000000000000000000080F927
:390759000000000000000000000000000000000000000000000000000000000000000000000000000000000000000000000000000000000000000080F9EE
:390792000800000000000000000000000000000000000000000000000000000000000000000000000000000000000000000000000000000000000020DB2B
:3907CB000000000000000000000000000000000000000000000000000000000000000000000000000000000000000000000000000000000000000080F97C
:390804000000000000000000000000000000000000000000000000000000000000000000000000000000000000000000000000000000000000000080F942
:39083D000400000000000000000000000000000000000000000000000000000000000000000000000000000000000000000000000000000000000090AC42
:390876000000000000000000000000000000000000000000000000000000000000000000000000000000000000000000000000000000000000000080F9D0
:3908AF000000000000000000000000000000000000000000000000000000000000000000000000000000000000000000000000000000000000000080F997
:3908E8000000000000000000000000000000000000000000000000000000000000000000000000000000000000000000000000000000000000000080F95E
:390921000000000000000000000000000000000000000000000000000000000000000000000000000000000000000000000000000000000000000080F924
:39095A000800000000000000000000000000000000000000000000000000000000000000000000000000000000000000000000000000000000000020DB61
:390993000000000000000000000000000000000000000000000000000000000000000000000000000000000000000000000000000000000000000080F9B2
:3909CC000000000000000000000000000000000000000000000000000000000000000000000000000000000000000000000000000000000000000080F979
:390A05000400000000000000000000000000000000000000000000000000000000000000000000000000000000000000000000000000000000000090AC78
:390A3E000000000000000000000000000000000000000000000000000000000000000000000000000000000000000000000000000000000000000080F906
:390A77000000000000000000000000000000000000000000000000000000000000000000000000000000000000000000000000000000000000000080F9CD
:390AB0000000000000000000000000000000000000000000000000000000000000000000000000000000000000000000000000000000000000000080F994
:390AE9000000000000000000000000000000000000000000000000000000000000000000000000000000000000000000000000000000000000000080F95B
:390B22000800000000000000000000000000000000000000000000000000000000000000000000000000000000000000000000000000000000000020DB97
:390B5B000000000000000000000000000000000000000000000000000000000000000000000000000000000000000000000000000000000000000080F9E8
:390B94000000000000000000000000000000000000000000000000000000000000000000000000000000000000000000000000000000000000000080F9AF
:390BCD000400000000000000000000000000000000000000000000000000000000000000000000000000000000000000000000000000000000000090ACAF
:390C06000000000000000000000000000000000000000000000000000000000000000000000000000000000000000000000000000000000000000080F93C
:390C3F000000000000000000000000000000000000000000000000000000000000000000000000000000000000000000000000000000000000000080F903
:390C78000000000000000000000000000000000000000000000000000000000000000000000000000000000000000000000000000000000000000080F9CA
:390CB1000000000000000000000000000000000000000000000000000000000000000000000000000000000000000000000000000000000000000080F991
:390CEA000800000000000000000000000000000000000000000000000000000000000000000000000000000000000000000000000000000000000020DBCE
:390D23000000000000000000000000000000000000000000000000000000000000000000000000000000000000000000000000000000000000000080F91E
:390D5C000000000000000000000000000000000000000000000000000000000000000000000000000000000000000000000000000000000000000080F9E5
:390D95000400000000000000000000000000000000000000000000000000000000000000000000000000000000000000000000000000000000000090ACE5
:390DCE000000000000000000000000000000000000000000000000000000000000000000000000000000000000000000000000000000000000000080F973
:390E07000000000000000000000000000000000000000000000000000000000000000000000000000000000000000000000000000000000000000080F939
:390E40000000000000000000000000000000000000000000000000000000000000000000000000000000000000000000000000000000000000000080F900
:390E79000000000000000000000000000000000000000000000000000000000000000000000000000000000000000000000000000000000000000080F9C7
:390EB2000800000000000000000000000000000000000000000000000000000000000000000000000000000000000000000000000000000000000020DB04
:390EEB000000000000000000000000000000000000000000000000000000000000000000000000000000000000000000000000000000000000000080F955
:390F24000000000000000000000000000000000000000000000000000000000000000000000000000000000000000000000000000000000000000080F91B
:390F5D000400000000000000000000000000000000000000000000000000000000000000000000000000000000000000000000000000000000000090AC1B
:390F96000000000000000000000000000000000000000000000000000000000000000000000000000000000000000000000000000000000000000080F9A9
:390FCF000000000000000000000000000000000000000000000000000000000000000000000000000000000000000000000000000000000000000080F970
:391008002000048000100002400008000120000480001000000000000000000000000000000000800010000240000800012000048000100002400080F9B2
:391041000000000000000000000000000000000000000000000000000000000000000000000000000000000000000000000000000000000000000080F9FD
:39107A002800048000100002400008000120000480001000000000000000000000000000000000800010000240000800012000048000100002400020DBB6
:3910B3000000000000000000000000000000000000000000000000000000000000000000000000000000000000000000000000000000000000000080F98B
:3910EC002000048000100002400008000120000480001000000000000000000000000000000000800010000240000800012000048000100002400080F9CE
:391125000400000000000000000000000000000000000000000000000000000000000000000000000000000000000000000000000000000000000090AC51
:39115E002000048000100002400008000120000480001000000000000000000000000000000000800010000240000800012000048000100002400080F95B
:391197000000000000000000000000000000000000000000000000000000000000000000000000000000000000000000000000000000000000000080F9A6
:3911D0000000000000000000000000000000000000000000000000000000000000000000000000000000000000000000000000000000000000000080F96D
:391209000000000000000000000000000000000000000000000000000000000000000000000000000000000000000000000000000000000000000080F933
:391242000000000000000000000000000000000000000000000000000000000000000000000000000000000000000000000000000000000000000080F9FA
:39127B000000000000000000000000000000000000000000000000000000000000000000000000000000000000000000000000000000000000000080F9C1
:3912B4000000000000000000000000000000000000000000000000000000000000000000000000000000000000000000000000000000000000000080F988
:3912ED000000000000000000000000000000000000000000000000000000000000000000000000000000000000000000000000000000000000000080F94F
:391326000000000000000000000000000000000000000000000000000000000000000000000000000000000000000000000000000000000000000080F915
:39135F000000000000000000000000000000000000000000000000000000000000000000000000000000000000000000000000000000000000000080F9DC
:391398000000000000000000000000000000000000000000000000000000000000000000000000000000000000000000000000000000000000000080F9A3
:3913D1000000000000000000000000000000000000000000000000000000000000000000000000000000000000000000000000000000000000000080F96A
:39140A000000000000000000000000000000000000000000000000000000000000000000000000000000000000000000000000000000000000000080F930
:391443000000000000000000000000000000000000000000000000000000000000000000000000000000000000000000000000000000000000000080F9F7
:39147C000000000000000000000000000000000000000000000000000000000000000000000000000000000000000000000000000000000000000080F9BE
:3914B5000000000000000000000000000000000000000000000000000000000000000000000000000000000000000000000000000000000000000080F985
:3914EE000000000000000000000000000000000000000000000000000000000000000000000000000000000000000000000000000000000000000080F94C
:391527000000000000000000000000000000000000000000000000000000000000000000000000000000000000000000000000000000000000000080F912
:391560000000000000000000000000000000000000000000000000000000000000000000000000000000000000000000000000000000000000000080F9D9
:391599000000000000000000000000000000000000000000000000000000000000000000000000000000000000000000000000000000000000000080F9A0
:3915D2000000000000000000000000000000000000000000000000000000000000000000000000000000000000000000000000000000000000000080F967
:39160B000000000000000000000000000000000000000000000000000000000000000000000000000000000000000000000000000000000000000080F92D
:391644000000000000000000000000000000000000000000000000000000000000000000000000000000000000000000000000000000000000000080F9F4
:39167D000000000000000000000000000000000000000000000000000000000000000000000000000000000000000000000000000000000000000080F9BB
:3916B6000000000000000000000000000000000000000000000000000000000000000000000000000000000000000000000000000000000000000080F982
:3916EF000000000000000000000000000000000000000000000000000000000000000000000000000000000000000000000000000000000000000080F949
:391728000000000000000000000000000000000000000000000000000000000000000000000000000000000000000000000000000000000000000080F90F
:391761000000000000000000000000000000000000000000000000000000000000000000000000000000000000000000000000000000000000000080F9D6
:39179A000000000000000000000000000000000000000000000000000000000000000000000000000000000000000000000000000000000000000080F99D
:3917D3000000000000000000000000000000000000000000000000000000000000000000000000000000000000000000000000000000000000000080F964
:39180C000000000000000000000000000000000000000000000000000000000000000000000000000000000000000000000000000000000000000080F92A
:391845000000000000000000000000000000000000000000000000000000000000000000000000000000000000000000000000000000000000000080F9F1
:39187E000000000000000000000000000000000000000000000000000000000000000000000000000000000000000000000000000000000000000080F9B8
:3918B7000000000000000000000000000000000000000000000000000000000000000000000000000000000000000000000000000000000000000080F97F
:3918F0000000000000000000000000000000000000000000000000000000000000000000000000000000000000000000000000000000000000000080F946
:391929000000000000000000000000000000000000000000000000000000000000000000000000000000000000000000000000000000000000000080F90C
:391962000000000000000000000000000000000000000000000000000000000000000000000000000000000000000000000000000000000000000080F9D3
:39199B000000000000000000000000000000000000000000000000000000000000000000000000000000000000000000000000000000000000000080F99A
:3919D4000000000000000000000000000000000000000000000000000000000000000000000000000000000000000000000000000000000000000080F961
:391A0D000000000000000000000000000000000000000000000000000000000000000000000000000000000000000000000000000000000000000080F927
:391A46000000000000000000000000000000000000000000000000000000000000000000000000000000000000000000000000000000000000000080F9EE
:391A7F000000000000000000000000000000000000000000000000000000000000000000000000000000000000000000000000000000000000000080F9B5
:391AB8000000000000000000000000000000000000000000000000000000000000000000000000000000000000000000000000000000000000000080F97C
:391AF1000000000000000000000000000000000000000000000000000000000000000000000000000000000000000000000000000000000000000080F943
:391B2A000000000000000000000000000000000000000000000000000000000000000000000000000000000000000000000000000000000000000080F909
:391B63000000000000000000000000000000000000000000000000000000000000000000000000000000000000000000000000000000000000000080F9D0
:391B9C000000000000000000000000000000000000000000000000000000000000000000000000000000000000000000000000000000000000000080F997
:391BD5000000000000000000000000000000000000000000000000000000000000000000000000000000000000000000000000000000000000000080F95E
:391C0E000000000000000000000000000000000000000000000000000000000000000000000000000000000000000000000000000000000000000080F924
:391C47000000000000000000000000000000000000000000000000000000000000000000000000000000000000000000000000000000000000000080F9EB
:391C80000000000000000000000000000000000000000000000000000000000000000000000000000000000000000000000000000000000000000080F9B2
:391CB9000000000000000000000000000000000000000000000000000000000000000000000000000000000000000000000000000000000000000080F979
:391CF2000800000000000000000000000000000000000000000000000000000000000000000000000000000000000000000000000000000000000020DBB6
:391D2B000000000000000000000000000000000000000000000000000000000000000000000000000000000000000000000000000000000000000080F906
:391D64000000000000000000000000000000000000000000000000000000000000000000000000000000000000000000000000000000000000000080F9CD
:391D9D000400000000000000000000000000000000000000000000000000000000000000000000000000000000000000000000000000000000000090ACCD
:391DD6000000000000000000000000000000000000000000000000000000000000000000000000000000000000000000000000000000000000000080F95B
:391E0F000000000000000000000000000000000000000000000000000000000000000000000000000000000000000000000000000000000000000080F921
:391E48000000000000000000000000000000000000000000000000000000000000000000000000000000000000000000000000000000000000000080F9E8
:391E81000000000000000000000000000000000000000000000000000000000000000000000000000000000000000000000000000000000000000080F9AF
:391EBA000800000000000000000000000000000000000000000000000000000000000000000000000000000000000000000000000000000000000020DBEC
:391EF3000000000000000000000000000000000000000000000000000000000000000000000000000000000000000000000000000000000000000080F93D
:391F2C000000000000000000000000000000000000000000000000000000000000000000000000000000000000000000000000000000000000000080F903
:391F65000400000000000000000000000000000000000000000000000000000000000000000000000000000000000000000000000000000000000090AC03
:391F9E000000000000000000000000000000000000000000000000000000000000000000000000000000000000000000000000000000000000000080F991
:391FD7000000000000000000000000000000000000000000000000000000000000000000000000000000000000000000000000000000000000000080F958
:392010000000000000000000000000000000000000000000000000000000000000000000000000000000000000000000000000000000000000000080F91E
:392049000000000000000000000000000000000000000000000000000000000000000000000000000000000000000000000000000000000000000080F9E5
:392082000800000000000000000000000000000000000000000000000000000000000000000000000000000000000000000000000000000000000020DB22
:3920BB000000000000000000000000000000000000000000000000000000000000000000000000000000000000000000000000000000000000000080F973
:3920F4000000000000000000000000000000000000000000000000000000000000000000000000000000000000000000000000000000000000000080F93A
:39212D000400000000000000000000000000000000000000000000000000000000000000000000000000000000000000000000000000000000000090AC39
:392166000000000000000000000000000000000000000000000000000000000000000000000000000000000000000000000000000000000000000080F9C7
:39219F001000000000000000000000000000000000000000000000000000000000000000000000000000000000000000000000000000000000000080F87F
:3921D8000000000000000000000000000000000000000000000000000000000000000000000000000000000000000000000000000000000000000080F955
:392211000000000000000000000000000000000000000000000000000000000000000000000000000000000000000000000000000000000000000080F91B
:39224A000C000000000000000000000000000000000000000000000000000000000000000000000000000000000000000000000000000000000000209F90
:392283000400000000000000000000000000000000000000000000000000000000000000000000000000000000000000000000000000000000000080BDE1
:3922BC000000000000000000000000000000000000000000000000000000000000000000000000000000000000000000000000000000000000000080F970
:3922F5000C00000000000000000000000000000000000000000000000000000000000000000000000000000000000000000000000000000000000010ACE8
:39232E000000000000000000000000000000000000000000000000000000000000000000000000000000000000000000000000000000000000000080F9FD
:392367000000000000000000000000000000000000000000000000000000000000000000000000000000000000000000000000000000000000000080F9C4
:3923A0000000000000000000000000000000000000000000000000000000000000000000000000000000000000000000000000000000000000000080F98B
:3923D9000000000000000000000000000000000000000000000000000000000000000000000000000000000000000000000000000000000000000080F952
:392412000800000000000000000000000000000000000000000000000000000000000000000000000000000000000000000000000000000000000020DB8E
:39244B000000000000000000000000000000000000000000000000000000000000000000000000000000000000000000000000000000000000000080F9DF
:392484000000000000000000000000000000000000000000000000000000000000000000000000000000000000000000000000000000000000000080F9A6
:3924BD000400000000000000000000000000000000000000000000000000000000000000000000000000000000000000000000000000000000000090ACA6
:3924F6000000000000000000000000000000000000000000000000000000000000000000000000000000000000000000000000000000000000000080F934
:39252F000000000000000000000000000000000000000000000000000000000000000000000000000000000000000000000000000000000000000080F9FA
:392568000000000000000000000000000000000000000000000000000000000000000000000000000000000000000000000000000000000000000080F9C1
:3925A1000000000000000000000000000000000000000000000000000000000000000000000000000000000000000000000000000000000000000080F988
:3925DA000800000000000000000000000000000000000000000000000000000000000000000000000000000000000000000000000000000000000020DBC5
:392613000000000000000000000000000000000000000000000000000000000000000000000000000000000000000000000000000000000000000080F915
:39264C000000000000000000000000000000000000000000000000000000000000000000000000000000000000000000000000000000000000000080F9DC
:392685000400000000000000000000000000000000000000000000000000000000000000000000000000000000000000000000000000000000000090ACDC
:3926BE000000000000000000000000000000000000000000000000000000000000000000000000000000000000000000000000000000000000000080F96A
:3926F7000000000000000000000000000000000000000000000000000000000000000000000000000000000000000000000000000000000000000080F931
:392730000000000000000000000000000000000000000000000000000000000000000000000000000000000000000000000000000000000000000080F9F7
:392769000000000000000000000000000000000000000000000000000000000000000000000000000000000000000000000000000000000000000080F9BE
:3927A2000800000000000000000000000000000000000000000000000000000000000000000000000000000000000000000000000000000000000020DBFB
:3927DB000000000000000000000000000000000000000000000000000000000000000000000000000000000000000000000000000000000000000080F94C
:392814000000000000000000000000000000000000000000000000000000000000000000000000000000000000000000000000000000000000000080F912
:39284D000400000000000000000000000000000000000000000000000000000000000000000000000000000000000000000000000000000000000090AC12
:392886000000000000000000000000000000000000000000000000000000000000000000000000000000000000000000000000000000000000000080F9A0
:3928BF000000000000000000000000000000000000000000000000000000000000000000000000000000000000000000000000000000000000000080F967
:3928F8002000048000100002400008000120000480001000000000000000000000000000000000800010000240000800012000048000100002400080F9AA
:392931000000000000000000000000000000000000000000000000000000000000000000000000000000000000000000000000000000000000000080F9F4
:39296A002800048000100002400008000120000480001000000000000000000000000000000000800010000240000800012000048000100002400020DBAD
:3929A3000000000000000000000000000000000000000000000000000000000000000000000000000000000000000000000000000000000000000080F982
:3929DC002000048000100002400008000120000480001000000000000000000000000000000000800010000240000800012000048000100002400080F9C5
:392A15000400000000000000000000000000000000000000000000000000000000000000000000000000000000000000000000000000000000000090AC48
:392A4E002000048000100002400008000120000480001000000000000000000000000000000000800010000240000800012000048000100002400080F952
:392A87000000000000000000000000000000000000000000000000000000000000000000000000000000000000000000000000000000000000000080F99D
:392AC0000000000000000000000000000000000000000000000000000000000000000000000000000000000000000000000000000000000000000080F964
:392AF9000000000000000000000000000000000000000000000000000000000000000000000000000000000000000000000000000000000000000080F92B
:392B32000000000000000000000000000000000000000000000000000000000000000000000000000000000000000000000000000000000000000080F9F1
:392B6B000000000000000000000000000000000000000000000000000000000000000000000000000000000000000000000000000000000000000080F9B8
:392BA4000000000000000000000000000000000000000000000000000000000000000000000000000000000000000000000000000000000000000080F97F
:392BDD000000000000000000000000000000000000000000000000000000000000000000000000000000000000000000000000000000000000000080F946
:392C16000000000000000000000000000000000000000000000000000000000000000000000000000000000000000000000000000000000000000080F90C
:392C4F000000000000000000000000000000000000000000000000000000000000000000000000000000000000000000000000000000000000000080F9D3
:392C88000200000000000000000000000000000000020000000000000000000000000000000000000000000000000000000000000000000000000080D9B6
:392CC1000000000000000000000000000000000000010000000000000000000000000000000000000000000000000000000000000000000000000080F861
:392CFA000000000000000000000000000000000000000000000000000000000000000000000000000000000000000000000000000000000000000080F928
:392D33000000000000000000000000000000000000000000000000000000000000000000000000000000000000000000000000000000000000000080F9EE
:392D6C000000000000000000000000000000000000000000000000000000000000000000000000000000000000000000000000000000000000000080F9B5
:392DA5000000000000000000000000000000000000000000000000000000000000000000000000000000000000000000000000000000000000000080F97C
:392DDE000000000000000000000000000000000000000000000000000000000000000000000000000000000000000000000000000000000000000080F943
:392E17000000000000000000000000000000000000000000000000000000000000000000000000000000000000000000000000000000000000000080F909
:392E50000000000000000000000000000000000000000000000000000000000000000000000000000000000000000000000000000000000000000080F9D0
:392E89000000000000000000000000000000000000000000000000000000000000000000000000000000000000000000000000000000000000000080F997
:392EC2000000000000000000000000000000000000000000000000000000000000000000000000000000000000000000000000000000000000000080F95E
:392EFB000000000000000000000000000000000000000000000000000000000000000000000000000000000000000000000000000000000000000080F925
:392F34000000000000000000000000000000000000000000000000000000000000000000000000000000000000000000000000000000000000000080F9EB
:392F6D000000000000000000000000000000000000000000000000000000000000000000000000000000000000000000000000000000000000000080F9B2
:392FA6000000000000000000000000000000000000000000000000000000000000000000000000000000000000000000000000000000000000000080F979
:392FDF000000000000000000000000000000000000000000000000000000000000000000000000000000000000000000000000000000000000000080F940
:393018000000000000000000000000000000000000000000000000000000000000000000000000000000000000000000000000000000000000000080F906
:393051000000000000000000000000000000000000000000000000000000000000000000000000000000000000000000000000000000000000000080F9CD
:39308A000000000000000000000000000000000000000000000000000000000000000000000000000000000000000000000000000000000000000080F994
:3930C3000000000000000000000000000000000000000000000000000000000000000000000000000000000000000000000000000000000000000080F95B
:3930FC000000000000000000000000000000000000000000000000000000000000000000000000000000000000000000000000000000000000000080F922
:393135000000000000000000000000000000000000000000000000000000000000000000000000000000000000000000000000000000000000000080F9E8
:39316E000000000000000000000000000000000000000000000000000000000000000000000000000000000000000000000000000000000000000080F9AF
:3931A7000000000000000000000000000000000000000000000000000000000000000000000000000000000000000000000000000000000000000080F976
:3931E0000000000000000000000000000000000000000000000000000000000000000000000000000000000000000000000000000000000000000080F93D
:393219000000000000000000000000000000000000000000000000000000000000000000000000000000000000000000000000000000000000000080F903
:393252000000000000000000000000000000000000000000000000000000000000000000000000000000000000000000000000000000000000000080F9CA
:39328B000000000000000000000000000000000000000000000000000000000000000000000000000000000000000000000000000000000000000080F991
:3932C4000000000000000000000000000000000000000000000000000000000000000000000000000000000000000000000000000000000000000080F958
:3932FD000000000000000000000000000000000000000000000000000000000000000000000000000000000000000000000000000000000000000080F91F
:393336000000000000000000000000000000000000000000000000000000000000000000000000000000000000000000000000000000000000000080F9E5
:39336F00000014820050080A4800080001000024820050080000000000000000000000000000000000000000000000000000000080000000000000008DD1
:3933A800000000200000800000006000000000001000008000000000000000000000000000000000000000000000000000000000000000000000000084D8
:3933E1000000000000000000080060200002003000060000000000000000000000000000000000000000000000000000000000000006000000000080F27B
:39341A000000A04026842010010301008C00002022068014000000000000000000000000000000000000000000000000000000000000040000000000BD91
:393453000000200200820210010000018C00008008068228000000000000000000000000000000000000000000000000000000000026000000000080CA54
:39348C0000003C8801F0201EC48378400302000C8007F000000000000000000000000000000000000000000000000000000000008007010000000000B055
:3934C5000000302000C24018040360400C0000100806C200000000000000000000000000000000000000000000000000000000000000000000000080E869
:3934FE000000100100400408008300020C10002000164084000000000000000000000000000000000000000000000000000000000006020000000000AAEB
:39353700B080941000100042482128040100001484001008000000000000000000000000000000000000000000000000000000008000000000000000FB74
:393570000000000000000010000002400000000000000080000000000000000000000000000000000000000000000000000000000006000000000000E862
:3935A9008040001000008008080000000002000000064000000000000000000000000000000000000000000000000000000000000006010000000000FF3B
:3935E2000C10200100000000018A40802C00000040108814000000000000000000000000000000000000000000000000000000000010000000000020825E
:39361B000484A00000004458009240022C0000200A060100000000000000000000000000000000000000000000000000000000000010000000000000CFA2
:3936540060013C080030000EC40378100302003C8007B080000000000000000000000000000000000000000000000000000000008007010000000000BAD1
:39368D008C80302000004010040360400C00002000004000000000000000000000000000000000000000000000000000000000000006010000000010B17D
:3936C6000010100100C00218002122024C08001010260148000000000000000000000000000000000000000000000000000000000040000000000000EE7A
:3936FF003081048006500203400008000100000480009008000000000000000000000000000000000000000000000000000000008000000000000080D0CD
:393738000000000000000000000000000000000000000080000000000000000000000000000000000000000000000000000000000000000000000000F9DF
:393771000000300000002018000060000002003000060040000000000000000000000000000000000000000000000000000000000000010000000000D40A
:3937AA000C04020520840880025000200C00000004200202000000000000000000000000000000000000000000000000000000000006000000000010F4F3
:3937E3000445300800822858040060110C040030094681220000000000000000000000000000000000000000000000000000000000160000000000B0BFFE
:39381C00E0000C8001F00006C0001A000300003C80077000000000000000000000000000000000000000000000000000000000008001040000000000E299
:393855000C01300000C24018000060100C040000000080200000000000000000000000000000000000000000000000000000000000060000000000A0D04D
:39388E000050304000400418082361040C00003022260108000000000000000000000000000000000000000000000000000000000026010000000000F7AA
:3938C700A001048200100203404028210100000480009008000000000000000000000000000000000000000000000000000000008000000000000000DC4A
:393900000000002000800000000000000000000000000040000000000000000000000000000000000000000000000000000000000000000000000000B7F7
:393939000040100006004018000000200C00003000068000000000000000000000000000000000000000000000000000000000000006000000000080D966
:393972008811804020040400082042022C10000040004220000000000000000000000000000000000000000000000000000000000000080000000020CF5A
:3939AB00808920090002421805004010800000B008264104000000000000000000000000000000000000000000000000000000000006000000000000ACAB
:3939E40060001C800130001EC0007A000F04003C8007F02000000000000000000000000000000000000000000000000000000000800701000000008086B1
:393A1D00848120200002800000006040000000000000C000000000000000000000000000000000000000000000000000000000000000000000000010B683
:393A56000004300100000018112221028C0200302226C122000000000000000000000000000000000000000000000000000000000086000000000000B471
:393A8F002000841000100002400909000100000480005008010000000000000000000000000000000000000000000000000000008006000000000000BEC4
:393AC8000000000000C00000000000000000000000004000000000000000000000000000000000000000000000000000000000000000000000000000B510
:393B01008001302000008018008000200C00003000060000000000000000000000000000000000000000000000000000000000000000010000000080AA15
:393B3A000490000000000000080260000C0100004180C048000000000000000000000000000000000000000000000000000000000040000000000090FDB1
:393B73008C51200A00004498048A0001800000B00026C0400000000000000000000000000000000000000000000000000000000000C00000000000B09E43
:393BAC00E0011C000030001EC00378400F04003C880731000000000000000000000000000000000000000000000000000000000080010000000000008307
:393BE500080020080000400010030040000200000000C4000000000000000000000000000000000000000000000000000000000000000000000000A0F48A
:393C1E008081B00000000258002102028C000030101600840000000000000000000000000000000000000000000000000000000000000200000000009D38
:393C57002000048000100002400028040100000480001000000000000000000000000000000000000000000000000000000000008000000000000080F588
:393C90000000000000000000000000400000000000060000000000000000000000000000000000000000000000000000000000000000000000000080BF76
:393CC9008001000000000000100300000C0400301000C100000000000000000000000000000000000000000000000000000000000006000000000000A96E
:393D02000828004120C44058000801808C000000022000420000000000000000000000000000000000000000000000000000000000060000000000208379
:393D3B00804100110002224004034014800000300140C104000000000000000000000000000000000000000000000000000000000040000000000080F652
:393D740060003C8001F0001EC08078000F04003C88013020000000000000000000000000000000000000000000000000000000008001020000000080A761
:393DAD008401002000C2001800034040000200000000C000000000000000000000000000000000000000000000000000000000000000010000000090FF89
:393DE6008085000106C02498040B24022C0000301040C210000000000000000000000000000000000000000000000000000000000010000000000080AA2F
:393E1F00300004800010000240200C210120000490001042000000000000000000000000000000000000000000000000000000008000000000000080E62A
:393E58000000000000000000000200000000000000008000000000000000000000000000000000000000000000000000000000000000000000000080D35C
:393E91008001000006C10018000020200C80010010064220000000000000000000000000000000000000000000000000000000000006000000000080E5E8
:393ECA000C84301010001400022001028C04849000400004000000000000000000000000000000000000000000000000000000000006080000000090FA26
:393F03008449000A06C1229800004101808051300016C048000000000000000000000000000000000000000000000000000000000040000000000030F5E7
:393F3C00E0013C800130001EC40038100FE4013C880771000000000000000000000000000000000000000000000000000000000080070200000000809982
:393F75000C00300006C200001000404000020030000084000000000000000000000000000000000000000000000000000000000000000100000000A0FF29
:393FAE008021300A46C04858001062020C8081300816C084000000000000000000000000000000000000000000000000000000000006000000000000DD63
:393FE700301104800010408244000800012000048000D000000000000000000000000000000000000000000000000000000000008000000000000000FDCC
:39402000008000000000000800000000000000000000C000000000000000000000000000000000000000000000000000000000000000000000000080FDA2
:394059000001000000008010000360000000403000060000000000000000000000000000000000000000000000000000000000000000000000000080E064
:394092008C40301026010098100300208C82010040A000000000000000000000000000000000000000000000000000000000000000060200000000A0D888
:3940CB008440000800014290081060040C8011310846C040000000000000000000000000000000000000000000000000000000000040000000000000A99C
:39410400E0013C800730000EC0001A100362003C8007F100000000000000000000000000000000000000000000000000000000008007010000000000C84D
:39413D008C01300006004018048060000C8001000000C400000000000000000000000000000000000000000000000000000000000006010000000090FF63
:394176008045300946840818000060128C8829301016C000010000000000000000000000000000000000000000000000000000000026000000000000A795
:3941AF001000000000000000000000000000000000000000000000000000000000000000000000000000000000000000000000000000000000000080F84F
:3941E8002000048000100002400008000120000480001000000000000000000000000000000000800010000240000800012000048000100002400080F9A1
:394221000000000000000000000000000000000000000000000000000000000000000000000000000000000000000000000000000000000000000080F9EB
:39425A002C00048000100002400008000120000480001000000000000000000000000000000000800010000240000800012000048000100002400010ACDF
:3942930004000000000000000000000000000000000000000000000000000000000000000000000000000000000000000000000000000000000000B08EB0
:3942CC002000048000100002400008000120000480001000000000000000000000000000000000800010000240000800012000048000100002400080F9BC
:394305000C000000000000000000000000000000000000000000000000000000000000000000000000000000000000000000000000000000000000209FB4
:39433E002000048000100002400008000120000480001000000000000000000000000000000000800010000240000800012000048000100002400080F949
:394377000000000000000000000000000000000000000000000000000000000000000000000000000000000000000000000000000000000000000080F994
:3943B0000000000000000000000000000000000000000000000000000000000000000000000000000000000000000000000000000000000000000080F95B
:3943E9000000120000000029000120000000001000024000000000000000000000000000000000000000000000000000000000000000000000000000E508
:394422000000800000000000000000000000000000020000000000000000000000000000000000000000000000000000000000000000000000000000F3EC
:39445B000000000000000000000000000000000000000000000000000000000000000000000000000000000000000000000000000000000000000080F9AF
:394494000000000000000000000000000000000000000000000000000000000000000000000000000000000000000000000000000000000000000080F976
:3944CD0008000000024000000400000000000000000000000000000000000000000000000000000000000000000000000000000000000000000000009DCB
:394506001000000000010000000000000000000000000100000000000000000000000000000000000000000000000000000000000000010000000080E900
:39453F0000000000012400000800000000000000000004000000000000000000000000000000000000000000000000000000000000000400000000808509
:39457800000010000A0002A8000120008002000000298001000000000000000000000000000000000000000000000000000000000000000000000000E316
:3945B1000000200002000008000240000002000000000000000000000000000000000000000000000000000000000000000000000000000000000000B7AC
:3945EA001000000000000000000000000000000000004000000000000000000000000000000000000000000000000000000000000000000000000080FCCC
:394623000002C00000000100020480011000024000800001000000000000000000000000000000000000000000000000000000000008000000000080D0E9
:39465C000000000000000000000000000000000000000000000000000000000000000000000000000000000000000000000000000000000000000080F9AC
:394695004000005000004004000001200000000800010040000000000000000000000000000000000000000000000000000000000000000000000000C9E5
:3946CE000000000000000000000000400000001000000000000000000000000000000000000000000000000000000000000000000000000000000080B82B
:394707000000000000010000000000000000000000000000000000000000000000000000000000000000000000000000000000000000000000000080F800
:394740000000000000000000000000000000000000000000000000000000000000000000000000000000000000000000000000000000000000000080F9C7
:394779002000000000800000040000000800000008080000000000000000000000000000000000000000000000000000000000008000000000000000FFCC
:3947B200000100000200000000000000040001000008000000000000000000000000000000000000000000000000000000000000000000000000008084BA
:3947EB000001080000000000000014000110000400001800000000000000000000000000000000000000000000000000000000000000000000000000F556
:394824000000002001000000000000000020000000000000000000000000000000000000000000000000000000000000000000000000040000000080CDC9
:39485D008440000002010008000000000000001000004100000000000000000000000000000000000000000000000000000000000000000000000000CC36
:3948960000000000000000000000000000004000000200000000000000000000000000000000000000000000000000000000000000020000000000809B8A
:3948CF004280A000014200040000000004800009800022000000000000000000000000000000000000000000000000000000000080000000000000A8B2FE
:39490800824780002E0122082841C00020003F8000000102000000000000000000000000000000000200000000000000000000008000000000000080DBEC
:394941008020000001012008000100000000000000000100000000000000000000000000000000000100000000000000000000000000000000000000D997
:39497A004000000002000000004020000080400000000000000000000000000000000000000000000000000000000000000000000000000000000000BBE7
:3949B3000000000001000000000000000000000020000000000000000000000000000000000000000000000000000000000000000000000000000080CB5F
:3949EC00000000000000000048001010000000002000100000000000000000000000000000000000000000000000000000000000000001000000008092E7
:394A250080000000006000028000000002000000000020000000000000000000000000000000000000000000000000000000000000000200000000009B37
:394A5E00200004000012000200020200000000040000A080000000000000000000000000000000000000000000000000000000000000000000000000813E
:394A97000000000000000000000000000000000000000000000000000000000000000000000000000000000000000000000000000000000000000028D3EB
:394AD0008000100000400008000001000004000000000040000000000000000000000000000000000000000000000000000000000000000000000000BDD3
:394B09000000000000000000000200000000000080048000000000000000000000000000000000000000000000000000000000000000000000000000D796
:394B42000200000000000000000000000008000080000000000000000000000000000000000000000000000000000000000000000000000000000080D35D
:394B7B000000002000000000008000000002000000000000000000000000000000000000000000000000000000000000000000000000000000000080D30C
:394BB4000800000000000200000000000200040000000000000000000000000000000000000000000000000000000000000000000000000000000000FDBB
:394BED000000000000000000000000000000000000000000000000000000000000000000000000000000000000000000000000000000000000000080F916
:394C26000000000000000000000000000000000000000000000000000000000000000000000000000000000000000000000000000000000000000080F9DC
:394C5F000000040000000000000000000000000000000000000000000000000000000000000000000000000000000000000000000002000000000080DDB9
:394C9800000020000000000000000000000000000000000000000000000000000000000000000000000000000000000000000000000400000000008099A6
:394CD1000000000000000000000000000000000000000000000000000000000000000000000000000000000000000000000000000000000000000080F931
:394D0A000000000000000000000000000000000000000000000000000000000000000000000000000000000000000000000000000000000000000080F9F7
:394D4300002DE0025400092001548004900012400248000900000000000000000000000000000000540009200124800490001240025C000920012480D099
:394D7C00A0619181260006C000C8020360000C800130000600000000000000000000000000000080260006C00018000360000C8001320006C0001880C744
:024DB500FFFFFE
:00000001FF
