:020000040000FA
:39000000FFFF62FF3600FFFFFFFFFFFFFFFFFFFFFFFFFFFFFFFFFFFFFFFFFFFFFFFFFFFFFFFFFFFFFFFFFFFFFFFFFFFFFFFFFFFFFFFFFFFFFFFFFFFFFF65
:39003900000C8001300006C00018000360000C800130000600000000000000000000000000000000300106C00498000360800C8001300006C0041800AD0B
:39007200001240024800092001248004900012400248000900000000000000000000000000000000E80009A0037480049000174002480009A0032400D94C
:3900AB000000000000000000000000000000000000000000000000000000000000000000000000000000000000000000000000000000000000000080F9A3
:3900E4000000000000000000000000000000000000000000000000000000000000000000000000000000000000000000000000000000000000000080F96A
:39011D000000000000000000000000000000000000000000000000000000000000000000000000008200000002400000004001000000000000120080B55D
:390156000000000000000000000000000000000000000000000000000000000000000100000000000000008840100000000004000000000080000080F49F
:39018F000000000000000000000000000000000000000000000000000000000000000000000000000000004A6010000000A02000800000001A400380C39D
:3901C8000000000000000000000000000000000000000000000000000000000000000000000000000000000000820000000001000000000000000000E398
:390201000000000000000000000000000000000000000000000000000000000000000000000000000000000800000000008001000000000018000082D8C9
:39023A000000000000000000000000000000000000000000000000000000000000000000000000000000009002500000000041000080000058201080A838
:390273000000000000000000000000000000000000000000000000000000000000000000000000000000008020200000008048000020000098006300B9F6
:3902AC0000000000000000000000000000000000000000000000000000000000000000000000000000000006C000020000600100800102001EC80300FF85
:3902E5000000000000000000000000000000000000000000000000000000000000000000000000000000000000000000008000000000020018080000E25C
:39031E000000000000000000000000000000000000000000000000000000000000000000000000000000000020000400000051000046000018011002C7F9
:3903570000000000000000000000000000000000000000000000000000000000000000000000000000100202400A040000A00500800000001A400302FA8D
:390390000000000000000000000000000000000000000000000000000000000000000000000000000000400000010000000041000000000000000180FD34
:3903C9000000000000000000000000000000000000000000000000000000000000000000000000000000000008030100008001010006020018000380B218
:390402000800000000000000000000000000000000000000000000000000000000000000000000000000100001010000000009000010000058204320991A
:39043B0000000000000000000000000000000000000000000000000000000000000000000000000000800859008A0000000030000020000098000881FFAD
:3904740000000000000000000000000000000000000000000000000000000000000000000000000000300006C401000000600000800102001EC80300BFC9
:3904AD000400000000000000000000000000000000000000000000000000000000000000000000000000000000020200008000000000020018080310A4B5
:3904E600000000000000000000000000000000000000000000000000000000000000000000000000000002012001000000800901004000001801138296AB
:39051F001000000000000000000000000000000000000000000000000000000000000000000000000010028A500B040000A0010080000000024023018889
:390558000000000000000000000000000000000000000000000000000000000000000000000000000000401800030000000000000006000000000200F90E
:39059100000000000000000000000000000000000000000000000000000000000000000000000000000000180002010000800100000600000000000093FC
:3905CA000C000000000000000000000000000000000000000000000000000000000000000000000000001018100100000080110100860000402050308635
:3906030004000000000000000000000000000000000000000000000000000000000000000000000000400889008B0000000000000026000080008B90831A
:39063C0000000000000000000000000000000000000000000000000000000000000000000000000000300016C8030000006000018007020006C803008C2D
:390675000C000000000000000000000000000000000000000000000000000000000000000000000000000018000202000000800000060200180883B0E762
:3906AE000000000000000000000000000000000000000000000000000000000000000000000000000000025910030000000004000046000000011300AA9D
:3906E7000000000000000000000000000000000000000000000000000000000000000000000000000010000240080400002000008026010002400080EB08
:3907200000000000000000000000000000000000000000000000000000000000000000000000000000000000000000000000000000040000000082809307
:3907590000000000000000000000000000000000000000000000000000000000000000000000000000C0001800000100008001000006000018000300FFED
:390792000800000000000000000000000000000000000000000000000000000000000000000000000000221800000000008001000016040018005320BA0C
:3907CB000000000000000000000000000000000000000000000000000000000000000000000000000000049800080000008001000026020018058800B053
:390804000000000000000000000000000000000000000000000000000000000000000000000000000030401EC800020000E00101800700001EC00000D547
:39083D000400000000000000000000000000000000000000000000000000000000000000000000000000401800000200008001000006000018008090A6CF
:390876000000000000000000000000000000000000000000000000000000000000000000000000000000081810020000008089000046020098021000CF4D
:3908AF001000000000000000000000000000000000000000000000000000000000000000000000000050021A4103000000A00800800000001A402000AA04
:3908E80000000000000000000000000000000000000000000000000000000000000000000000000000C0401810030000000000010000000000008180F6B4
:3909210000000000000000000000000000000000000000000000000000000000000000000000000000C00018000300000080810000000200180003808F95
:39095A000C00000000000000000000000000000000000000000000000000000000000000000000000080105010030000000010000010000058205330C288
:3909930004000000000000000000000000000000000000000000000000000000000000000000000000C0088900230200000008000020000098008890C316
:3909CC0000000000000000000000000000000000000000000000000000000000000000000000000000F0001EC803000000608000800102001EC80000834D
:390A05000C000000000000000000000000000000000000000000000000000000000000000000000000C0000810000100000080000000020018088030D1B0
:390A3E0000000000000000000000000000000000000000000000000000000000000000000000000000C0029900000000000004000046000018011000DAD7
:390A77001000000000000000000000000000000000000000000000000000000000000000000000000010021A4043000000A00900800000008A4403808A83
:390AB000000000000000000000000000000000000000000000000000000000000000000000000000008040000002000000000101000000000000030099AD
:390AE90000000000000000000000000000000000000000000000000000000000000000000000000000000018080300000000800000060000080000809B08
:390B22000C000000000000000000000000000000000000000000000000000000000000000000000000001018010304000000040000800000900200A08A1E
:390B5B000400000000000000000000000000000000000000000000000000000000000000000000000000089910830000008031000020000080201304ECB5
:390B94000000000000000000000000000000000000000000000000000000000000000000000000000030001EC003000000E001008001020006C00300F5F5
:390BCD000C00000000000000000000000000000000000000000000000000000000000000000000000000001800030200000000000000020000040390B974
:390C060000000000000000000000000000000000000000000000000000000000000000000000000000000219200B0000000008010040000000000B04FC1B
:390C3F0000000000000000000000000000000000000000000000000000000000000000000000000000D0025A600B040000A0040280000000024023C0F5A1
:390C78000000000000000000000000000000000000000000000000000000000000000000000000000080400800030000000000000006000000008280F080
:390CB10000000000000000000000000000000000000000000000000000000000000000000000000000C0001010020100008000000006020000000000D4CB
:390CEA0008000000000000000000000000000000000000000000000000000000000000000000000000C0100800030000000049000016000058205030C8CF
:390D230000000000000000000000000000000000000000000000000000000000000000000000000000C00891008B0000000010020026000080008B90D50B
:390D5C0000000000000000000000000000000000000000000000000000000000000000000000000000F0001EC8030000006000008007020006C80300C902
:390D950004000000000000000000000000000000000000000000000000000000000000000000000000C0001010030200008000000006020000088330A257
:390DCE0000000000000000000000000000000000000000000000000000000000000000000000000000C0029900030000000011020046000000011380B0F1
:390E070010000000000000000000000000000000000000000000000000000000000000000000000000D0005A6011000000A00100800600008A440380D0BF
:390E400000000000000000000000000000000000000000000000000000000000000000000000000000000008000001000080010000060000000000009059
:390E79000000000000000000000000000000000000000000000000000000000000000000000000000000001800030100008001000006000008000082BA59
:390EB2000C00000000000000000000000000000000000000000000000000000000000000000000000000229802200000008001000006000090021020DEF8
:390EEB0004000000000000000000000000000000000000000000000000000000000000000000000000000418011002000000080000200000802010009132
:390F24000000000000000000000000000000000000000000000000000000000000000000000000000030401EC4030000006040008001020006C000018ACB
:390F5D000C00000000000000000000000000000000000000000000000000000000000000000000000000401800000000008041000006020000040091C7D2
:390F96000000000000000000000000000000000000000000000000000000000000000000000000000000081821430000008011000046000000002000AEF9
:390FCF0000000000000000000000000000000000000000000000000000000000000000000000000000000000000000000000000000000000000000C0BD6C
:391008002000048000100002400008000120000480001000000000000000000000000000000000800010000240000800012000048000100002400080F9B2
:391041000000000000000000000000000000000000000000000000000000000000000000000000000000000000000000000000000000000000000080F9FD
:39107A002C000480001000024000080001200004800010000000000000000000000000000000008000100002400008000120000480001000024000308EEF
:3910B3000400000000000000000000000000000000000000000000000000000000000000000000000000000000000000000000000000000000000090ACC4
:3910EC002000048000100002400008000120000480001000000000000000000000000000000000800010000240000800012000048000100002400080F9CE
:391125000C000000000000000000000000000000000000000000000000000000000000000000000000000000000000000000000000000000000000308EC7
:39115E002000048000100002400008000120000480001000000000000000000000000000000000800010000240000800012000048000100002400080F95B
:391197000000000000000000000000000000000000000000000000000000000000000000000000000000000000000000000000000000000000000080F9A6
:3911D0000000000000000000000000000000000000000000000000000000000000000000000000000000004000080000000000000000000000000080F529
:391209000000000000000000000000000000000000000000000000000000000000000000000000000000001000000000000040000000000000000800BC98
:391242000000000000000000000000000000000000000000000000000000000000000000000000000000000000400000000000000000000000000080B9FA
:39127B000A00000000000000000000000000000000000000000000000000000000000000000000000000000008000000000000000000000000000008DB45
:3912B4000000000000000000000000000000000000000000000000000000000000000000000000000000000000000000000000000000000000000080F988
:3912ED0000000000000000000000000000000000000000000000000000000000000000000000000002000000000000000000000000000000000000A0F92D
:391326000000000000000000000000000000000000000000000000000000000000000000000000000000000000000000000000000000000000000080F915
:39135F000000000000000000000000000000000000000000000000000000000000000000000000000100000800500000000000000000000000048100A5D2
:3913980000000000000000000000000000000000000000000000000000000000000000000000008058010048000605000080000000044A1908807080A6EB
:3913D1000000000000000000000000000000000000000000000000000000000000000000000000000001000800000000008000000000400008000080A9E9
:39140A000000000000000000000000000000000000000000000000000000000000000000000000000000000000010000000000000002002000008028F8E6
:391443000000000000000000000000000000000000000000000000000000000000000000000000000000000000000000000000000000000000000080F9F7
:39147C000000000000000000000000000000000000000000000000000000000000000000000000000000000000000000000000000000000000000080F9BE
:3914B5000000000000000000000000000000000000000000000000000000000000000000000000000000000000000000000000000000000000000080F985
:3914EE000000000000000000000000000000000000000000000000000000000000000000000000000000000000010200000000010000000000000080DB66
:391527000000000000000000000000000000000000000000000000000000000000000000000000000000000040000000000000000000000000000080BD0E
:391560000000000000000000000000000000000000000000000000000000000000000000000000000000000000000000000000000000000000000080F9D9
:391599000000000000000000000000000000000000000000000000000000000000000000000000000080000000000000008001000006000010000300A35C
:3915D20000000000000000000000000000000000000000000000000000000000000000000000000000C00000000000000080000000020000080001808C89
:39160B000000000000000000000000000000000000000000000000000000000000000000000000000010000100000000000000000000000000000080F91C
:391644000000000000000000000000000000000000000000000000000000000000000000000000000000800200000000000000000000000002800080FBEE
:39167D000000000000000000000000000000000000000000000000000000000000000000000000000200000000000000000040000002010000000008B631
:3916B6000400000000000000000000000000000000000000000000000000000000000000000000000001000804000000000000000000000000008000E585
:3916EF000000000000000000000000000000000000000000000000000000000000000000000000000104000210010000000085000001020050040A828BB7
:3917280002000000000000000000000000000000000000000000000000000000000000000000000079010084040600000080200000820000E800BE20FC9A
:39176100000000000000000000000000000000000000000000000000000000000000000000000000000100000400000000800000000200000800800081BF
:39179A000000000000000000000000000000000000000000000000000000000000000000000000000000000000010000000040000000010000000180ACA7
:3917D3000000000000000000000000000000000000000000000000000000000000000000000000000000000020000400000000020000000000000084DD56
:39180C000000000000000000000000000000000000000000000000000000000000000000000000000000000020000000000000020000000000200084B924
:391845000000000000000000000000000000000000000000000000000000000000000000000000000000004000000100002004008000000000600080C6DF
:39187E000000000000000000000000000000000000000000000000000000000000000000000000000000000082000000000082000000000000400081A9C3
:3918B7000000000000000000000000000000000000000000000000000000000000000000000000000000000000020000000000000000000000000080FB7B
:3918F0000000000000000000000000000000000000000000000000000000000000000000000000000000000840000000002000000000000000000000BF98
:391929000000000000000000000000000000000000000000000000000000000000000000000000000000000000000000000000000000000000000080F90C
:3919620000000000000000000000000000000000000000000000000000000000000000000000000000000000000000000000000000000000000000A0DBD1
:39199B001000000000000000000000000000000000000000000000000000000000000000000000000000000000400000000000000000000000000080B88B
:3919D4000200000000000000000000000000000000000000000000000000000000000000000000000000000010000000000000000000000000000080CA7E
:391A0D000000000000000000000000000000000000000000000000000000000000000000000000000000000000000000000000000000000000000080F927
:391A46000000000000000000000000000000000000000000000000000000000000000000000000000000000004800000000000000000010000000000B032
:391A7F000000000000000000000000000000000000000000000000000000000000000000000000000000000000000000000000000000000000000080F9B5
:391AB8000000000000000000000000000000000000000000000000000000000000000000000000000000000000000000000000000000000000000080F97C
:391AF1000000000000000000000000000000000000000000000000000000000000000000000000000000000000000000000000000000000000000080F943
:391B2A000000000000000000000000000000000000000000000000000000000000000000000000000000000000000000000000000000000000000080F909
:391B63000000000000000000000000000000000000000000000000000000000000000000000000000000000000000000000000000000000000000080F9D0
:391B9C000000000000000000000000000000000000000000000000000000000000000000000000000000000000000000000000000000000000000080F997
:391BD5000000000000000000000000000000000000000000000000000000000000000000000000000000000000000000000000000000000000000080F95E
:391C0E000000000000000000000000000000000000000000000000000000000000000000000000000000000000000000000000000000000000000080F924
:391C47000000000000000000000000000000000000000000000000000000000000000000000000000000000000000000000000000000000000000080F9EB
:391C80000000000000000000000000000000000000000000000000000000000000000000000000000000000000000000000000000000000000000080F9B2
:391CB9000000000000000000000000000000000000000000000000000000000000000000000000000000000000000000000000000000000000000080F979
:391CF2000800000000000000000000000000000000000000000000000000000000000000000000000000000000000000000000000000000000000030CAB7
:391D2B000000000000000000000000000000000000000000000000000000000000000000000000000000000000000000000000000000000000000090E807
:391D64000000000000000000000000000000000000000000000000000000000000000000000000000000000000000000000000000000000000000080F9CD
:391D9D0004000000000000000000000000000000000000000000000000000000000000000000000000000000000000000000000000000000000000B08ECB
:391DD6000000000000000000000000000000000000000000000000000000000000000000000000000000000000000000000000000000000000000080F95B
:391E0F000000000000000000000000000000000000000000000000000000000000000000000000000000000000000000000000000000000000000080F921
:391E48000000000000000000000000000000000000000000000000000000000000000000000000000000000000000000000000000000000000000080F9E8
:391E81000000000000000000000000000000000000000000000000000000000000000000000000000000000000000000000000000000000000000080F9AF
:391EBA000800000000000000000000000000000000000000000000000000000000000000000000000000000000000000000000000000000000000020DBEC
:391EF3000000000000000000000000000000000000000000000000000000000000000000000000000000000000000000000000000000000000000080F93D
:391F2C000000000000000000000000000000000000000000000000000000000000000000000000000000000000000000000000000000000000000080F903
:391F65000400000000000000000000000000000000000000000000000000000000000000000000000000000000000000000000000000000000000090AC03
:391F9E000000000000000000000000000000000000000000000000000000000000000000000000000000000000000000000000000000000000000080F991
:391FD70000000000000000000000000000000000000000000000000000000000000000000000000000000000000000000000000000000000000000C0BD54
:392010000000000000000000000000000000000000000000000000000000000000000000000000000000000000000000000000000000000000000080F91E
:392049000000000000000000000000000000000000000000000000000000000000000000000000000000000000000000000000000000000000000080F9E5
:392082000800000000000000000000000000000000000000000000000000000000000000000000000000000000000000000000000000000000000030CA23
:3920BB000000000000000000000000000000000000000000000000000000000000000000000000000000000000000000000000000000000000000090E874
:3920F4000000000000000000000000000000000000000000000000000000000000000000000000000000000000000000000000000000000000000080F93A
:39212D0004000000000000000000000000000000000000000000000000000000000000000000000000000000000000000000000000000000000000B08E37
:392166000000000000000000000000000000000000000000000000000000000000000000000000000000000000000000000000000000000000000080F9C7
:39219F000000000000000000000000000000000000000000000000000000000000000000000000000000000000000000000000000000000000000080F98E
:3921D8000000000000000000000000000000000000000000000000000000000000000000000000000000000000000000000000000000000000000080F955
:392211000000000000000000000000000000000000000000000000000000000000000000000000000000000000000000000000000000000000000080F91B
:39224A000800000000000000000000000000000000000000000000000000000000000000000000000000000000000000000000000000000000000020DB58
:392283000000000000000000000000000000000000000000000000000000000000000000000000000000000000000000000000000000000000000080F9A9
:3922BC000000000000000000000000000000000000000000000000000000000000000000000000000000000000000000000000000000000000000080F970
:3922F5000400000000000000000000000000000000000000000000000000000000000000000000000000000000000000000000000000000000000090AC70
:39232E000000000000000000000000000000000000000000000000000000000000000000000000000000000000000000000000000000000000000080F9FD
:3923670000000000000000000000000000000000000000000000000000000000000000000000000000000000000000000000000000000000000000C0BDC0
:3923A0000000000000000000000000000000000000000000000000000000000000000000000000000000000000000000000000000000000000000080F98B
:3923D9000000000000000000000000000000000000000000000000000000000000000000000000000000000000000000000000000000000000000080F952
:392412000800000000000000000000000000000000000000000000000000000000000000000000000000000000000000000000000000000000000030CA8F
:39244B000000000000000000000000000000000000000000000000000000000000000000000000000000000000000000000000000000000000000090E8E0
:392484000000000000000000000000000000000000000000000000000000000000000000000000000000000000000000000000000000000000000080F9A6
:3924BD0004000000000000000000000000000000000000000000000000000000000000000000000000000000000000000000000000000000000000B08EA4
:3924F6000000000000000000000000000000000000000000000000000000000000000000000000000000000000000000000000000000000000000080F934
:39252F000000000000000000000000000000000000000000000000000000000000000000000000000000000000000000000000000000000000000080F9FA
:392568000000000000000000000000000000000000000000000000000000000000000000000000000000000000000000000000000000000000000080F9C1
:3925A1000000000000000000000000000000000000000000000000000000000000000000000000000000000000000000000000000000000000000080F988
:3925DA000800000000000000000000000000000000000000000000000000000000000000000000000000000000000000000000000000000000000020DBC5
:392613000000000000000000000000000000000000000000000000000000000000000000000000000000000000000000000000000000000000000080F915
:39264C000000000000000000000000000000000000000000000000000000000000000000000000000000000000000000000000000000000000000080F9DC
:392685000400000000000000000000000000000000000000000000000000000000000000000000000000000000000000000000000000000000000090ACDC
:3926BE000000000000000000000000000000000000000000000000000000000000000000000000000000000000000000000000000000000000000080F96A
:3926F7000000000000000000000000000000000000000000000000000000000000000000000000000000000000000000000000000000000000000080F931
:392730000000000000000000000000000000000000000000000000000000000000000000000000000000000000000000000000000000000000000080F9F7
:392769000000000000000000000000000000000000000000000000000000000000000000000000000000000000000000000000000000000000000080F9BE
:3927A2000800000000000000000000000000000000000000000000000000000000000000000000000000000000000000000000000000000000000020DBFB
:3927DB000000000000000000000000000000000000000000000000000000000000000000000000000000000000000000000000000000000000000080F94C
:392814000000000000000000000000000000000000000000000000000000000000000000000000000000000000000000000000000000000000000080F912
:39284D000400000000000000000000000000000000000000000000000000000000000000000000000000000000000000000000000000000000000090AC12
:392886000000000000000000000000000000000000000000000000000000000000000000000000000000000000000000000000000000000000000080F9A0
:3928BF000000000000000000000000000000000000000000000000000000000000000000000000000000000000000000000000000000000000000080F967
:3928F8002000048000100002400008000120000480001000000000000000000000000000000000800010000240000800012000048000100002400080F9AA
:392931000000000000000000000000000000000000000000000000000000000000000000000000000000000000000000000000000000000000000080F9F4
:39296A002800048000100002400008000120000480001000000000000000000000000000000000800010000240000800012000048000100002400020DBAD
:3929A3000000000000000000000000000000000000000000000000000000000000000000000000000000000000000000000000000000000000000080F982
:3929DC002000048000100002400008000120000480001000000000000000000000000000000000800010000240000800012000048000100002400080F9C5
:392A15000400000000000000000000000000000000000000000000000000000000000000000000000000000000000000000000000000000000000090AC48
:392A4E002000048000100002400008000120000480001000000000000000000000000000000000800010000240000800012000048000100002400080F952
:392A87000000000000000000000000000000000000000000000000000000000000000000000000000000000000000000000000000000000000000080F99D
:392AC0000000000000000000000000000000000000000000000000000000000000000000000000000000000000000000000000000000000000000080F964
:392AF9000000000000000000000000000000000000000000000000000000000000000000000000000000000000000000000000000000000000000080F92B
:392B32000000000000000000000000000000000000000000000000000000000000000000000000000000000000000000000000000000000000000080F9F1
:392B6B0000000000000000000000000000000000000000000000000000000000000000000000000000000000000000000000000000000000000000C0BDB4
:392BA4000000000000000000000000000000000000000000000000000000000000000000000000000000000000000000000000000000000000000080F97F
:392BDD000000000000000000000000000000000000000000000000000000000000000000000000000000001000000000000000000000000000004080FCF3
:392C16000000000000000000000000000000000000000000000000000000000000000000000000000000000000000000000000000000000000000080F90C
:392C4F000000000000000000000000000000000000000000000000000000000000000000000000000000000400000000000000000000000000000081AD1A
:392C88000000000000000000000000000000000000000000000000000000000000000000000000000000000000000000000000000000000000000090E89B
:392CC1000000000000000000000000000000000000000000000000000000000000000000000000000000000000000000000000000000000000000080F961
:392CFA0000000000000000000000000000000000000000000000000000000000000000000000000000000000000000000000000000000000000000C0BD24
:392D33000000000000000000000000000000000000000000000000000000000000000000000000000000000000000000000000000000000000000080F9EE
:392D6C000000000000000000000000000000000000000000000000000000000000000000000000000000000000000000000000000000000000000080F9B5
:392DA5000000000000000000000000000000000000000000000000000000000000000000000000000000000000000000000000000000000000000080F97C
:392DDE000000000000000000000000000000000000000000000000000000000000000000000000000000000000000000000000000000000000000080F943
:392E17000000000000000000000000000000000000000000000000000000000000000000000000000000000000000000000000000000000000000080F909
:392E50000000000000000000000000000000000000000000000000000000000000000000000000000000000000000000000000000000000000000080F9D0
:392E89000000000000000000000000000000000000000000000000000000000000000000000000000000000000000000000000000000000000000080F997
:392EC2000000000000000000000000000000000000000000000000000000000000000000000000000000000000000000000000000000000000000080F95E
:392EFB000000000000000000000000000000000000000000000000000000000000000000000000000000000000000000000000000000000000000080F925
:392F34000000000000000000000000000000000000000000000000000000000000000000000000000000000000000000000000000000000000000080F9EB
:392F6D000000000000000000000000000000000000000000000000000000000000000000000000000000000000000000000000000000000000020080FBAE
:392FA60000000000000000000000000000000000000000000000000000000000000000000000000000000000000000000000000000000000000000C0BD75
:392FDF000000000000000000000000000000000000000000000000000000000000000000000000000000000000000000000000000000000000080080F140
:3930180000000000000000000000000000000000000000000000000000000000000000000000000000000000000000000000000000000000000000C0BD02
:393051000000000000000000000000000000000000000000000000000000000000000000000000000000000000000000000000000000000000000080F9CD
:39308A000000000000000000000000000000000000000000000000000000000000000000000000000000000000000000000000000000000000000080F994
:3930C3000000000000000000000000000000000000000000000000000000000000000000000000000000000000000000000000000000000000000080F95B
:3930FC000000000000000000000000000000000000000000000000000000000000000000000000000000000000000000000000000000000000000080F922
:393135000000000000000000000000000000000000000000000000000000000000000000000000000000000000000000000000000000000000000080F9E8
:39316E000000000000000000000000000000000000000000000000000000000000000000000000000000000000000000000000000000000000000080F9AF
:3931A7000000000000000000000000000000000000000000000000000000000000000000000000000000000000000000000000000000000000000080F976
:3931E0000000000000000000000000000000000000000000000000000000000000000000000000000000000000000000000000000000000000000080F93D
:393219000000000000000000000000000000000000000000000000000000000000000000000000000000000000000000000000000000000000000080F903
:393252000000000000000000000000000000000000000000000000000000000000000000000000000000000000000000000000000000000000000080F9CA
:39328B000000000000000000000000000000000000000000000000000000000000000000000000000000000000000000000000000000000000000080F991
:3932C4000000000000000000000000000000000000000000000000000000000000000000000000000000000000000000000000000000000000000080F958
:3932FD000000000000000000000000000000000000000000000000000000000000000000000000000000000000000000000000000000000000000080F91F
:393336000000000000000000000000000000000000000000000000000000000000000000000000000000000000000000000000000000000000000080F9E5
:39336F000000000000000000000000000000000000000000000000000000000000000000000000000000000000000000000000000000000000000080F9AC
:3933A8000000000000000000000000000000000000000000000000000000000000000000000000000000000000000000000000000000000000000080F973
:3933E1000000000000000000000000000000000000000000000000000000000000000000000000000000000000000000000000000000000000000080F93A
:39341A000000000000000000000000000000000000000000000000000000000000000000000000000000000000000000000000000000000000000080F900
:393453000000000000000000000000000000000000000000000000000000000000000000000000000000000000000000000000000000000000000080F9C7
:39348C000000000000000000000000000000000000000000000000000000000000000000000000000000000000000000000000000000000000000080F98E
:3934C5000000000000000000000000000000000000000000000000000000000000000000000000000000000000000000000000000000000000000080F955
:3934FE000000000000000000000000000000000000000000000000000000000000000000000000000000000000000000000000000000000000000080F91C
:393537000000000000000000000000000000000000000000000000000000000000000000000000000000000000000000000000000000000000000080F9E2
:393570000000000000000000000000000000000000000000000000000000000000000000000000000000000000000000000000000000000000000080F9A9
:3935A9000000000000000000000000000000000000000000000000000000000000000000000000000000000000000000000000000000000000000080F970
:3935E2000800000000000000000000000000000000000000000000000000000000000000000000000000000000000000000000000000000000000020DBAD
:39361B000000000000000000000000000000000000000000000000000000000000000000000000000000000000000000000000000000000000000080F9FD
:393654000000000000000000000000000000000000000000000000000000000000000000000000000000000000000000000000000000000000000080F9C4
:39368D000400000000000000000000000000000000000000000000000000000000000000000000000000000000000000000000000000000000000090ACC4
:3936C6000000000000000000000000000000000000000000000000000000000000000000000000000000000000000000000000000000000000000080F952
:3936FF0000000000000000000000000000000000000000000000000000000000000000000000000000000000000000000000000000000000000000C0BD15
:393738000000000000000000000000000000000000000000000000000000000000000000000000000000000000000000000000000000000000000080F9DF
:393771000000000000000000000000000000000000000000000000000000000000000000000000000000000000000000000000000000000000000080F9A6
:3937AA000800000000000000000000000000000000000000000000000000000000000000000000000000000000000000000000000000000000000030CAE4
:3937E3000000000000000000000000000000000000000000000000000000000000000000000000000000000000000000000000000000000000000090E835
:39381C000000000000000000000000000000000000000000000000000000000000000000000000000000000000000000000000000000000000000080F9FA
:3938550004000000000000000000000000000000000000000000000000000000000000000000000000000000000000000000000000000000000000B08EF8
:39388E000000000000000000000000000000000000000000000000000000000000000000000000000000000000000000000000000000000000000080F988
:3938C7000000000000000000000000000000000000000000000000000000000000000000000000000000000000000000000000000000000000000080F94F
:393900000000000000000000000000000000000000000000000000000000000000000000000000000000000000000000000000000000000000000080F915
:393939000000000000000000000000000000000000000000000000000000000000000000000000000000000000000000000000000000000000000080F9DC
:393972000800000000000000000000000000000000000000000000000000000000000000000000000000000000000000000000000000000000000020DB19
:3939AB000000000000000000000000000000000000000000000000000000000000000000000000000000000000000000000000000000000000000080F96A
:3939E4000000000000000000000000000000000000000000000000000000000000000000000000000000000000000000000000000000000000000080F931
:393A1D000400000000000000000000000000000000000000000000000000000000000000000000000000000000000000000000000000000000000090AC30
:393A56000000000000000000000000000000000000000000000000000000000000000000000000000000000000000000000000000000000000000080F9BE
:393A8F0000000000000000000000000000000000000000000000000000000000000000000000000000000000000000000000000000000000000000C0BD81
:393AC8000000000000000000000000000000000000000000000000000000000000000000000000000000000000000000000000000000000000000080F94C
:393B01000000000000000000000000000000000000000000000000000000000000000000000000000000000000000000000000000000000000000080F912
:393B3A000800000000000000000000000000000000000000000000000000000000000000000000000000000000000000000000000000000000000030CA50
:393B73000000000000000000000000000000000000000000000000000000000000000000000000000000000000000000000000000000000000000090E8A1
:393BAC000000000000000000000000000000000000000000000000000000000000000000000000000000000000000000000000000000000000000080F967
:393BE50004000000000000000000000000000000000000000000000000000000000000000000000000000000000000000000000000000000000000B08E65
:393C1E000000000000000000000000000000000000000000000000000000000000000000000000000000000000000000000000000000000000000080F9F4
:393C57000000000000000000000000000000000000000000000000000000000000000000000000000000000000000000000000000000000000000080F9BB
:393C90000000000000000000000000000000000000000000000000000000000000000000000000000000000000000000000000000000000000000080F982
:393CC9000000000000000000000000000000000000000000000000000000000000000000000000000000000000000000000000000000000000000080F949
:393D02000800000000000000000000000000000000000000000000000000000000000000000000000000000000000000000000000000000000000020DB85
:393D3B000000000000000000000000000000000000000000000000000000000000000000000000000000000000000000000000000000000000000080F9D6
:393D74000000000000000000000000000000000000000000000000000000000000000000000000000000000000000000000000000000000000000080F99D
:393DAD000400000000000000000000000000000000000000000000000000000000000000000000000000000000000000000000000000000000000090AC9D
:393DE6000000000000000000000000000000000000000000000000000000000000000000000000000000000000000000000000000000000000000080F92B
:393E1F000000000000000000000000000000000000000000000000000000000000000000000000000000000000000000000000000000000000000080F9F1
:393E58000000000000000000000000000000000000000000000000000000000000000000000000000000000000000000000000000000000000000080F9B8
:393E91000000000000000000000000000000000000000000000000000000000000000000000000000000000000000000000000000000000000000080F97F
:393ECA000800000000000000000000000000000000000000000000000000000000000000000000000000000000000000000000000000000000000020DBBC
:393F03000000000000000000000000000000000000000000000000000000000000000000000000000000000000000000000000000000000000000080F90C
:393F3C000000000000000000000000000000000000000000000000000000000000000000000000000000000000000000000000000000000000000080F9D3
:393F75000400000000000000000000000000000000000000000000000000000000000000000000000000000000000000000000000000000000000090ACD3
:393FAE000000000000000000000000000000000000000000000000000000000000000000000000000000000000000000000000000000000000000080F961
:393FE7000000000000000000000000000000000000000000000000000000000000000000000000000000000000000000000000000000000000000080F928
:394020000000000000000000000000000000000000000000000000000000000000000000000000000000000000000000000000000000000000000080F9EE
:394059000000000000000000000000000000000000000000000000000000000000000000000000000000000000000000000000000000000000000080F9B5
:394092000C000000000000000000000000000000000000000000000000000000000000000000000000000000000000000000000000000000000000209F2A
:3940CB000400000000000000000000000000000000000000000000000000000000000000000000000000000000000000000000000000000000000080BD7B
:394104000000000000000000000000000000000000000000000000000000000000000000000000000000000000000000000000000000000000000080F909
:39413D000C00000000000000000000000000000000000000000000000000000000000000000000000000000000000000000000000000000000000010AC81
:394176000000000000000000000000000000000000000000000000000000000000000000000000000000000000000000000000000000000000000080F997
:3941AF000000000000000000000000000000000000000000000000000000000000000000000000000000000000000000000000000000000000000080F95E
:3941E8002000048000100002400008000120000480001000000000000000000000000000000000800010000240000800012000048000100002400080F9A1
:394221000000000000000000000000000000000000000000000000000000000000000000000000000000000000000000000000000000000000000080F9EB
:39425A002800048000100002400008000120000480001000000000000000000000000000000000800010000240000800012000048000100002400020DBA4
:394293000000000000000000000000000000000000000000000000000000000000000000000000000000000000000000000000000000000000000080F979
:3942CC002000048000100002400008000120000480001000000000000000000000000000000000800010000240000800012000048000100002400080F9BC
:394305000400000000000000000000000000000000000000000000000000000000000000000000000000000000000000000000000000000000000090AC3F
:39433E002000048000100002400008000120000480001000000000000000000000000000000000800010000240000800012000048000100002400080F949
:394377000000000000000000000000000000000000000000000000000000000000000000000000000000000000000000000000000000000000000080F994
:3943B0000000000000000000000000000000000000000000000000000000000000000000000000000000000000000000000000000000000000000080F95B
:3943E9000000000000000000000000000000000000000000000000000000000000000000000000000000000000000000000000000000000000000080F922
:3944220000000000000000000000000000000000000000000000000000000000000000000000000000000000000000000000000000000000000000A0DBE6
:39445B000000000000000000000000000000000000000000000000000000000000000000000000000000000000000000000000000000000000000080F9AF
:394494000000000000000000000000000000000000000000000000000000000000000000000000000000000000000000000000000000000000000080F976
:3944CD000000000000000000000000000000000000000000000000000000000000000000000000000000000000000000000000000000000000000008F1BD
:394506000000000000000000000000000000000000000000000000000000000000000000000000000000000000000000000000000000000000000080F903
:39453F000000000000000000000000000000000000000000000000000000000000000000000000000000000000000000000000000000000000000080F9CA
:394578000000000000000000000000000000000000000000000000000000000000000000000000000000000000800000000000000000000000000100E0A9
:3945B10000000000000000000000000000000000000000000000000000000000000000000000000000000000004000000000000000000000000002809B74
:3945EA000000000000000000000000000000000000000000000000000000000000000000000000000000000000000000000000000000000000000080F91F
:394623000000000000000000000000000000000000000000000000000000000000000000000000000000000000000000000000000000000000000080F9E5
:39465C000000000000000000000000000000000000000000000000000000000000000000000000000000000000000000000000000000000000000080F9AC
:394695000000000000000000000000000000000000000000000000000000000000000000000000000000000000000000000000000000000000000080F973
:3946CE000000000000000000000000000000000000000000000000000000000000000000000000000000000000000000000000000000000000000080F93A
:394707000000000000000000000000000000000000000000000000000000000000000000000000000000000000000000000000000000000000000080F900
:394740000000000000000000000000000000000000000000000000000000000000000000000000000000000000000000000000000000000000000080F9C7
:394779000000000000000000000000000000000000000000000000000000000000000000000000000000000000000000000000000000000000000080F98E
:3947B2000000000000000000000000000000000000000000000000000000000000000000000000000000000000000000000000000000000000000080F955
:3947EB000000000000000000000000000000000000000000000000000000000000000000000000000000000000000000000000000000000000000080F91C
:394824000000000000000000000000000000000000000000000000000000000000000000000000000000000000000000000000000000000000000080F9E2
:39485D000000000000000000000000000000000000000000000000000000000000000000000000000000000000000000000000000000000000000080F9A9
:394896000000000000000000000000000000000000000000000000000000000000000000000000000000000000000000000000000000000000000080F970
:3948CF000000000000000000000000000000000000000000000000000000000000000000000000000000000000000000000000000000000000000080F937
:394908000000000000000000000000000000000000000000000000000000000000000000000000000000000000000000000000000000000000000080F9FD
:394941000000000000000000000000000000000000000000000000000000000000000000000000000000000000000000000000000000000000000080F9C4
:39497A000000000000000000000000000000000000000000000000000000000000000000000000000000000000000000000000000000000000000080F98B
:3949B3000000000000000000000000000000000000000000000000000000000000000000000000000000000000000000000000000000000000000080F952
:3949EC000000000000000000000000000000000000000000000000000000000000000000000000000000000000000000000000000000000000000080F919
:394A25000000000000000000000000000000000000000000000000000000000000000000000000000000000000000000000000000000000000000080F9DF
:394A5E000000000000000000000000000000000000000000000000000000000000000000000000000000000000000000000000000000000000000080F9A6
:394A97000000000000000000000000000000000000000000000000000000000000000000000000000000000000000000000000000000000000000080F96D
:394AD0000000000000000000000000000000000000000000000000000000000000000000000000000000000000000000000000000000000000000080F934
:394B09000000000000000000000000000000000000000000000000000000000000000000000000000000000000000000000000000000000000000080F9FA
:394B42000000000000000000000000000000000000000000000000000000000000000000000000000000000000000000000000000000000000000080F9C1
:394B7B000000000000000000000000000000000000000000000000000000000000000000000000000000000000000000000000000000000000000080F988
:394BB4000000000000000000000000000000000000000000000000000000000000000000000000000000000000000000000000000000000000000080F94F
:394BED000000000000000000000000000000000000000000000000000000000000000000000000000000000000000000000000000000000000000080F916
:394C26000000000000000000000000000000000000000000000000000000000000000000000000000000000000000000000000000000000000000080F9DC
:394C5F000000000000000000000000000000000000000000000000000000000000000000000000001200000000100100000000000010000080001880CB06
:394C98000000000000000000000000000000000000000000000000000000000000000000000000000400000000400000000000000004010004C242009002
:394CD1000000000000000000000000000000000000000000000000000000000000000000000000000000000000000000000000000000000000000080F931
:394D0A000000000000000000000000000000000000000000000000000000000000000000000000000000000000000000000000000000000000000080F9F7
:394D4300001240024800092001248004900012400248001D000000000000000000000000000000005C0009200174800490001240025C0009A0037E80C94F
:394D7C00000C8001300006C00018000360000C800130002600000000000000000000000000000000320006C00098000360000C8001320006C0049900CC3C
:024DB500FFFFFE
:00000001FF
