:020000040000FA
:39000000FFFF62FF3600FFFFFFFFFFFFFFFFFFFFFFFFFFFFFFFFFFFFFFFFFFFFFFFFFFFFFFFFFFFFFFFFFFFFFFFFFFFFFFFFFFFFFFFFFFFFFFFFFFFFFF65
:39003900000C9001304006C80019200360020C802C32000600000000000000000000000000000000300006C00018000360000C8001300006C0001880CACF
:390072000012E00248800B70012EC005D0011240055C0009000000000000000000000000000000004800092001248004900012400248000920012400B950
:3900AB000000000000000000000000000000000000000000000000000000000000000000000000000000000000000000000000000000000000000080F9A3
:3900E4000000000000000000000000000000000000000000000000000000000000000000000000000000000000000000000000000000000000000080F96A
:39011D000000280000800010000240200401000000040000000000000000000000000000000000000000000000000000000000000000000000000000DEA8
:390156000000800000000360000A00010000000000100200000000000000000000000100000000000000000000000000000000000000000000000080A44B
:39018F00200034000000000040894802012050048040D2000000000000000000000000000000000000000000000000000000000000000000000000009039
:3901C8000000300000000000000300100C0000300000C000000000000000000000000000000000000000000000000000000000000000000000000000A11E
:390201000000300000000000000118200002003080030000000000000000000000000000000000000000000000000000000000000000000000000080C165
:39023A000000300000000000000A09002C000032A1000800000000000000000000000000000000000000000000000000000000000000000000000000A69B
:390273000004300200000000000300224C8008300412C018000000000000000000000000000000000000000000000000000000000000000000000000B64F
:3902AC0060403C2000000000C00379000364003D8005F200000000000000000000000000000000000000000000000000000000000000000000000080FA4C
:3902E500808100000000000000830000000000311002C000000000000000000000000000000000000000000000000000000000000000000000000000D782
:39031E008011001000000000001360814001103001A4C002010000000000000000000000000000000000000000000000000000000000000000000080BAEE
:39035700A0110400000000004000080025A0512486000000000000000000000000000000000000000000000000000000000000000000000000000000BCF4
:3903900080810000000000000003000008840010800000000000000000000000000000000000000000000000000000000000000000000000000000809301
:3903C90060010000000000000003604004800130880102000000000000000000000000000000000000000000000000000000000000000000000000009720
:39040200A8910010000000000003640248880192800000000000000000000000000000000000000000000000000000000000000000000000000000A0E0AC
:39043B00800900020000000000430084849009A0102000000000000000000000000000000000000000000000000000000000000000000000000000009FAA
:39047400E0410C2000000000C00378000FE0013D00070100000000000000000000000000000000000000000000000000000000000000000000000000F999
:3904AD008401000000000000000361100C80012100000000000000000000000000000000000000000000000000000000000000000000000000000090B728
:3904E6008001311200000000001360020C88113021060000000000000000000000000000000000000000000000000000000000000000000000000000CFD9
:39051F0030100400000000004009080025A2010480060000000000000000000000000000000000000000000000000000000000000000000000000080A09C
:390558008081040000000000000302400880010000060000000000000000000000000000000000000000000000000000000000000000000000000000B1E0
:39059100E0000C0000000000008160400488410000060000000000000000000000000000000000000000000000000000000000000000000000000080CF02
:3905CA00AC91040800000000000A40020C00000021860000000000000000000000000000000000000000000000000000000000000000000000000090BF61
:3906030084098010000000000003601024001002041600000000000000000000000000000000000000000000000000000000000000000000000000B0F03E
:39063C006040380000000000C00379000BE8010C80070400000000000000000000000000000000000000000000000000000000000000000000000000CC1A
:390675008C010000000000000083600004800101100602000000000000000000000000000000000000000000000000000000000000000000000000A0BBE3
:3906AE000000310000000000001360800882113001400000000000000000000000000000000000000000000000000000000000000000000000000000F6ED
:3906E700A03014010010001A40006A0001A00134C2001000000000000000000000000000000000000000000040030000000000000000000000000080B501
:39072000000000100000001800036040018001300000C000000000000000000000000000000000000000000000030000000000000000000000000080E8F8
:3907590080811C0000300018C0016140038001300006C0000000000000000000000000000000000000000000C0030000000000000000000000000000C79C
:390792008809240900100018420360024181013012A0C0020100000000000000000000000000000000000000400300000000000000000000000000A096C0
:3907CB008044801000C04898081341844080113011160002000000000000000000000000000000000000000000000400000000000000000000000000AE45
:3908040060012C0000F0001EC00318000EE4813C800732400000000000000000000000000000000000000000C000000000000000000000000000008088D5
:39083D008401002000C0001804036010000040200806C020000000000000000000000000000000000000000000000000000000000000000000000010C46C
:390876008011220000C00080008B60020C0010200206C804000000000000000000000000000000000000000000000000000000000000000000000000F960
:3908AF00B011340000000002400328048D285004800000000000000000000000000000000000000000000000000000000000000000000000000000C09DC4
:3908E8008081300000000000000000100880000000000000000000000000000000000000000000000000000000000000000000000000000000000000C14D
:3909210060003C000000000000031A200C02000C00000000000000000000000000000000000000000000000000000000000000000000000000000000C9E1
:39095A00AC913400000000000003080028000006000000000000000000000000000000000000000000000000000000000000000000000000000000B0EE1C
:390993008409000100000080104300220401088010000000000000000000000000000000000000000000000000000000000000000000000000000090ED8E
:3909CC00E0410C1000000006C00378000F60000D800101000000000000000000000000000000000000000000000000000000000000000000000000009ED8
:390A05008C01000000000018080301000C000031080604000000000000000000000000000000000000000000000000000000000000000000000000B0B850
:390A3E000001010000000018011360818C0410B000460000000000000000000000000000000000000000000000000000000000000000000000000000FCDE
:390A7700B0050400000000024000682401A0050480060000000000000000000000000000000000000000000000000000000000000000000000000000F897
:390AB00000810000000000000000200000004100000600000000000000000000000000000000000000000000000000000000000000000000000000008C99
:390AE90080010C0000000000000078000C80013000060200000000000000000000000000000000000000000000000000000000000000000000000000F01A
:390B22008C8904000000000000006C810C80093200260000000000000000000000000000000000000000000000000000000000000000000000000020E6A1
:390B5B008405300200000080004040224090090004160000000000000000000000000000000000000000000000000000000000000000000000000080DF32
:390B9400E0013D2000000006D000380003E0010D8007040000000000000000000000000000000000000000000000000000000000000000000000000099C7
:390BCD008C01300000000018080041200080010010060200000000000000000000000000000000000000000000000000000000000000000000000010D533
:390C0600802930000000001801132001408121000140000000000000000000000000000000000000000000000000000000000000000000000000000097D5
:390C3F002090340000000002400028020D200034800600000000000000000000000000000000000000000000000000000000000000000000000000C0E4A1
:390C78000000300000000002000060100020000000060000000000000000000000000000000000000000000000000000000000000000000000000080BB40
:390CB1006000300000000006000078200C62000010060000000000000000000000000000000000000000000000000000000000000000000000000080E5F3
:390CEA002820301100000002000068002C200080002608000000000000000000000000000000000000000000000000000000000000000000000000B0CE66
:390D23000000300900000000004360224C84910004160000000000000000000000000000000000000000000000000000000000000000000000000090F599
:390D5C0060813C0000000004C00318000FC0010C80070400000000000000000000000000000000000000000000000000000000000000000000000000C437
:390D95000400301000000000000061000C820100100602000000000000000000000000000000000000000000000000000000000000000000000000B09990
:390DCE000010020200000000001000814C80010001400000000000000000000000000000000000000000000000000000000000000000000000000000D168
:390E0700B00904000000000240000800012050048000D000000000000000000000000000000000000000000000000000000000000000000000000000AC3A
:390E4000808000000000000000000000000000040000C000000000000000000000000000000000000000000000000000000000000000000000000000B9FC
:390E790060010C0000000006000002000C00000C0000F000000000000000000000000000000000000000000000000000000000000000000000000080AC97
:390EB200AC0005000000000200000000400100060000D000000000000000000000000000000000000000000000000000000000000000000000000020CF4E
:390EEB000401310100000000004060848000090000100080000000000000000000000000000000000000000000000000000000000000000000000080F2E8
:390F2400E0013C1000000006D00078000F68000980013400000000000000000000000000000000000000000000000000000000000000000000000080D391
:390F5D000C01300000000018000301400000000100060400000000000000000000000000000000000000000000000000000000000000000000000090A582
:390F96008085300000000098021000004C081000004600000000000000000000000000000000000000000000000000000000000000000000000000009504
:390FCF001000000A00000080000000004008840001100000000000000000000000000000000000000000000000000000000000000000000000000080DA18
:391008002000048000100002440008000120000488001100000000000000000000000000000000800010000240000800012000048000100002400000E43A
:391041000000000000000000000000000000000000000000000000000000000000000000000000000000000000000000000000000000000000000080F9FD
:39107A002C00008000100000400008000000000000001000000000000000000000000000000000800010000240000800012000048000100002400090FFC9
:3910B30004012000008000100002400008000120000480000000000000000000000000000000000000000000000200000000000000000000000000B0CCE2
:3910EC000000008000000000000000000000000000000000000000000000000000000000000000800010000200000800012000048000100002400080B585
:391125000C000000000000000000000000000000000000000000000000000000000000000000000000000000000000000000000000000000000000209FC6
:39115E002000108000100008400008000480001000021000000000000000000000000000000000800010000240000800012000048000100002400000F5DC
:391197000000100000000000800800000000000800000000000000000000000000000000000000000000000000000000000000000000000000000000E19E
:3911D0000002000000000000008400002400000000000000000000000000000000000000000000000000000000000000000000000000000000000080D3E9
:391209000000000000000000000000000000000000000000000000000000000000000000000000000000000000000000000000000000000000000080F933
:3912420002004000000000000000000000000000000000000000000000000000000000000000000000000000000000000000000000000000000000809B16
:39127B000000000000000000000000000000400000000000000000000000000000000000000000000000000000000000000000000000000000000080B9C1
:3912B4004001000000000000800A10010810000000010000000000000000000000000000000000000000000000000000000000000000000000000000C745
:3912ED000000000000000000000000000000000000000000000000000000000000000000000000000000000000000000000000000000000000000080F94F
:391326008000000000000000040020100480400008004020000000000000000000000000000000000000000000000000000000000000000000000008E5C1
:39135F002000000000000000100008400120000120A010800000000000000000000000000000000000000000000000000000000000000000000000008AE1
:3913980080465004001000A20300C002110025600C241106000000000000000000000000000000000000002800000000000000000000000000000080BB4B
:3913D10080401000000000000000000000000000200001000000000000000000000000000000000000000008000000000000000000000000000000009654
:39140A0008000008000000000400200000804010080200000000000000000000000000000000000000000000000000000000000000000000000000089CF7
:3914430000012000000000000000000100040010000000000000000000000000000000000000000000000000000000000000000000000000000000808931
:39147C002000000000000000400000000000000400000000000000000000000000000000000000000000000000000000000000000000000000000080FF54
:3914B5000000000000000000000000000000000000000000000000000000000000000000000000000000000000000000000000000000000000000080F985
:3914EE000040000000000000020000000000000000000000000000000000000000000000000000000000000000000000000000000000000000000080BF44
:391527002002400000000000000020000000000400000000000000000000000000000000000000000000000000000000000000000000000000000080FD88
:391560000000800000000000000000000000000000000000000000000000000000000000000000000000000000000000000000000000000000000000F1E1
:391599000000000000000000000000000000000000000000000000000000000000000000000000000000000000000000000000000000000000000080F9A0
:3915D2008000100000000008000000000000001000028000000000000000000000000000000000000000000000000000000000000000000000000000E2D4
:39160B000800000000000002000000000000002000000000010000000000000000000000000000000000000000000000000000000000000000000000DAA1
:391644000000000000000000000000000000000020800000000000000000000000000000000000000000000000000000000000000000000000000000D3FA
:39167D000000000800000000000000000080000000004120000000000000000000000000000000000000000000000000000000000000000000000080CEFD
:3916B6009000000000000008040100000482400008000000000000000000000000000000000000000000000000000000000000000000000000000000C1CF
:3916EF002028A010000000025050200A0168000120002240000000000000000000000000000000000000000000000000000000000000000000000020AF43
:3917280096339000000000B043144010000035200100002E00000000000000000000000000000000000000000000000000000000000000000000000081D3
:391761008000080000000000000000100000000000000020000000000000000000000000000000000000000000000000000000000000000000000080CB4C
:39179A004040000000000008040020000080401000000000000000000000000000000000000000000000000000000000000000000000000000000080D644
:3917D3000004000000000000000000000020000000010002000000000000000000000000000000000000000000000000000000000000000000000080BA7C
:39180C000000000000000000080000200006000110040000000000000000000000000000000000000000000000000000000000000000000000000080B52B
:391845000000000000000000000000000000000000001400000000000000000000000000000000000000000000000000000000000000000000000080BC1A
:39187E000000000000200000000120000040000000000000000000000000000000000000000000000000000000000000000000000000000000000080AE82
:3918B7004000000000000000000000800000020000000000000000000000000000000000000000000000000000000000000000000000000000000088FFAF
:3918F00000000200000000020000004001080000800000000000000000000000000000000000000000000000000000000000000000000000000000A0A0B2
:391929000000000000000000040000000800000080000000000000000000000000000000000000000000000000000000000000000000000000000080FD7C
:391962000600000000000000000002000000000000000400000000000000000000000000000000000000000000000000000000000000000000000080FBC5
:39199B000000000000000000000000000080000000000000000000000000000000000000000000000000000000000000000000000000000000000000F99A
:3919D4000000000000000000000000000001000000000100000000000000000000000000000000000000000000000000000000000000000000000080F860
:391A0D000080001000000000000000000000000100000000000000000000000000000000000000000000000000000200000000000000000000000000CB42
:391A46000000000000000000000000000000200000000000000000000000000000000000000000000000000000000000000000000000000000000080D9EE
:391A7F000000000000000000000000000000000000000000000000000000000000000000000000000000000000000000000000000000000000000080F9B5
:391AB8000000000000000000000000000000000000000000000000000000000000000000000000000000000000000000000000000000000000000080F97C
:391AF1000000000000000000000000000000000000000000000000000000000000000000000000000000000000000000000000000000000000000080F943
:391B2A000000000000000000000000000000000000000000000000000000000000000000000000000000000000000000000000000000000000000080F909
:391B63000000000000000000000000000000000000000000000000000000000000000000000000000000000000000000000000000000000000000080F9D0
:391B9C000000000000000000000000000000000000000000000000000000000000000000000000000000000000000000000000000000000000000080F997
:391BD5000000000000000000000000000000000000000000000000000000000000000000000000000000000000000000000000000000000000000080F95E
:391C0E000000000000000000000000000000000000000000000000000000000000000000000000000000000000000000000000000000000000000080F924
:391C47000000000000000000000000000000000000000000000000000000000000000000000000000000000000000000000000000000000000000080F9EB
:391C80000000000000000000000000000000000000000000000000000000000000000000000000000000000000000000000000000000000000000080F9B2
:391CB9000000000000000000000000000000000000000000000000000000000000000000000000000000000000000000000000000000000000000080F979
:391CF2000800000000000000000000000000000000000000000000000000000000000000000000000000000000000000000000000000000000000020DBB6
:391D2B000000000000000000000000000000000000000000000000000000000000000000000000000000000000000000000000000000000000000080F906
:391D64000000000000000000000000000000000000000000000000000000000000000000000000000000000000000000000000000000000000000080F9CD
:391D9D000400000000000000000000000000000000000000000000000000000000000000000000000000000000000000000000000000000000000090ACCD
:391DD6000000000000000000000000000000000000000000000000000000000000000000000000000000000000000000000000000000000000000080F95B
:391E0F000000000000000000000000000000000000000000000000000000000000000000000000000000000000000000000000000000000000000080F921
:391E48000000000000000000000000000000000000000000000000000000000000000000000000000000000000000000000000000000000000000080F9E8
:391E81000000000000000000000000000000000000000000000000000000000000000000000000000000000000000000000000000000000000000080F9AF
:391EBA000800000000000000000000000000000000000000000000000000000000000000000000000000000000000000000000000000000000000020DBEC
:391EF3000000000000000000000000000000000000000000000000000000000000000000000000000000000000000000000000000000000000000080F93D
:391F2C000000000000000000000000000000000000000000000000000000000000000000000000000000000000000000000000000000000000000080F903
:391F65000400000000000000000000000000000000000000000000000000000000000000000000000000000000000000000000000000000000000090AC03
:391F9E000000000000000000000000000000000000000000000000000000000000000000000000000000000000000000000000000000000000000080F991
:391FD7000000000000000000000000000000000000000000000000000000000000000000000000000000000000000000000000000000000000000080F958
:392010000000000000000000000000000000000000000000000000000000000000000000000000000000000000000000000000000000000000000080F91E
:392049000000000000000000000000000000000000000000000000000000000000000000000000000000000000000000000000000000000000000080F9E5
:392082000800000000000000000000000000000000000000000000000000000000000000000000000000000000000000000000000000000000000020DB22
:3920BB000000000000000000000000000000000000000000000000000000000000000000000000000000000000000000000000000000000000000080F973
:3920F4000000000000000000000000000000000000000000000000000000000000000000000000000000000000000000000000000000000000000080F93A
:39212D000400000000000000000000000000000000000000000000000000000000000000000000000000000000000000000000000000000000000090AC39
:392166000000000000000000000000000000000000000000000000000000000000000000000000000000000000000000000000000000000000000080F9C7
:39219F000000000000000000000000000000000000000000000000000000000000000000000000000000000000000000000000000000000000000080F98E
:3921D8000000000000000000000000000000000000000000000000000000000000000000000000000000000000000000000000000000000000000080F955
:392211000000000000000000000000000000000000000000000000000000000000000000000000000000000000000000000000000000000000000080F91B
:39224A000800000000000000000000000000000000000000000000000000000000000000000000000000000000000000000000000000000000000020DB58
:392283000000000000000000000000000000000000000000000000000000000000000000000000000000000000000000000000000000000000000080F9A9
:3922BC000000000000000000000000000000000000000000000000000000000000000000000000000000000000000000000000000000000000000080F970
:3922F5000400000000000000000000000000000000000000000000000000000000000000000000000000000000000000000000000000000000000090AC70
:39232E000000000000000000000000000000000000000000000000000000000000000000000000000000000000000000000000000000000000000080F9FD
:392367000000000000000000000000000000000000000000000000000000000000000000000000000000000000000000000000000000000000000080F9C4
:3923A0000000000000000000000000000000000000000000000000000000000000000000000000000000000000000000000000000000000000000080F98B
:3923D9000000000000000000000000000000000000000000000000000000000000000000000000000000000000000000000000000000000000000080F952
:392412000800000000000000000000000000000000000000000000000000000000000000000000000000000000000000000000000000000000000020DB8E
:39244B000000000000000000000000000000000000000000000000000000000000000000000000000000000000000000000000000000000000000080F9DF
:392484000000000000000000000000000000000000000000000000000000000000000000000000000000000000000000000000000000000000000080F9A6
:3924BD000400000000000000000000000000000000000000000000000000000000000000000000000000000000000000000000000000000000000090ACA6
:3924F6000000000000000000000000000000000000000000000000000000000000000000000000000000000000000000000000000000000000000080F934
:39252F000000000000000000000000000000000000000000000000000000000000000000000000000000000000000000000000000000000000000080F9FA
:392568000000000000000000000000000000000000000000000000000000000000000000000000000000000000000000000000000000000000000080F9C1
:3925A1000000000000000000000000000000000000000000000000000000000000000000000000000000000000000000000000000000000000000080F988
:3925DA000800000000000000000000000000000000000000000000000000000000000000000000000000000000000000000000000000000000000020DBC5
:392613000000000000000000000000000000000000000000000000000000000000000000000000000000000000000000000000000000000000000080F915
:39264C000000000000000000000000000000000000000000000000000000000000000000000000000000000000000000000000000000000000000080F9DC
:392685000400000000000000000000000000000000000000000000000000000000000000000000000000000000000000000000000000000000000090ACDC
:3926BE000000000000000000000000000000000000000000000000000000000000000000000000000000000000000000000000000000000000000080F96A
:3926F7000000000000000000000000000000000000000000000000000000000000000000000000000000000000000000000000000000000000000080F931
:392730000000000000000000000000000000000000000000000000000000000000000000000000000000000000000000000000000000000000000080F9F7
:392769000000000000000000000000000000000000000000000000000000000000000000000000000000000000000000000000000000000000000080F9BE
:3927A2000800000000000000000000000000000000000000000000000000000000000000000000000000000000000000000000000000000000000020DBFB
:3927DB000000000000000000000000000000000000000000000000000000000000000000000000000000000000000000000000000000000000000080F94C
:392814000000000000000000000000000000000000000000000000000000000000000000000000000000000000000000000000000000000000000080F912
:39284D000400000000000000000000000000000000000000000000000000000000000000000000000000000000000000000000000000000000000090AC12
:392886000000000000000000000000000000000000000000000000000000000000000000000000000000000000000000000000000000000000000080F9A0
:3928BF000000000000000000000000000000000000000000000000000000000000000000000000000000000000000000000000000000000000000080F967
:3928F8002000048000100002400008000120000480001000000000000000000000000000000000800010000240000800012000048000100002400080F9AA
:392931000000000000000000000000000000000000000000000000000000000000000000000000000000000000000000000000000000000000000080F9F4
:39296A002800048000100002400008000120000480001000000000000000000000000000000000800010000240000800012000048000100002400020DBAD
:3929A3000000000000000000000000000000000000000000000000000000000000000000000000000000000000000000000000000000000000000080F982
:3929DC002000048000100002400008000120000480001000000000000000000000000000000000800010000240000800012000048000100002400080F9C5
:392A15000400000000000000000000000000000000000000000000000000000000000000000000000000000000000000000000000000000000000090AC48
:392A4E002000048000100002400008000120000480001000000000000000000000000000000000800010000240000800012000048000100002400080F952
:392A87000000000000000000000000000000000000000000000000000000000000000000000000000000000000000000000000000000000000000080F99D
:392AC0000000000000000000000000000000000000000000000000000000000000000000000000000000000000000000000000000000000000000080F964
:392AF9000000000000000000000000000000000000000000000000000000000000000000000000000000000000000000000000000000000000000080F92B
:392B32000000000000000000000000000000000000000000000000000000000000000000000000000000000000000000000000000000000000000080F9F1
:392B6B000000000000000000000000000000000000000000000000000000000000000000000000000000000000000000000000000000000000000080F9B8
:392BA4000000000000000000000000000000000000000000000000000000000000000000000000000000000000000000000000000000000000000080F97F
:392BDD000000000000000000000000000000000000000000000000000000000000000000000000000000000000000000000000000000000000000080F946
:392C16000000000000000000000000000000000000000000000000000000000000000000000000000000000000000000000000000000000000000080F90C
:392C4F000000000000000000000000000000000000000000000000000000000000000000000000000000000000000000000000000000000000000080F9D3
:392C88000000000000000000000000000000000000000000000000000000000000000000000000000000000000000000000000000000000000000080F99A
:392CC1000000000000000000000000000000000000000000000000000000000000000000000000000000000000000000000000000000000000000080F961
:392CFA000000000000000000000000000000000000000000000000000000000000000000000000000000000000000000000000000000000000000080F928
:392D33000000000000000000000000000000000000000000000000000000000000000000000000000000000000000000000000000000000000000080F9EE
:392D6C000000000000000000000000000000000000000000000000000000000000000000000000000000000000000000000000000000000000000080F9B5
:392DA5000000000000000000000000000000000000000000000000000000000000000000000000000000000000000000000000000000000000000080F97C
:392DDE000000000000000000000000000000000000000000000000000000000000000000000000000000000000000000000000000000000000000080F943
:392E17000000000000000000000000000000000000000000000000000000000000000000000000000000000000000000000000000000000000000080F909
:392E50000000000000000000000000000000000000000000000000000000000000000000000000000000000000000000000000000000000000000080F9D0
:392E89000000000000000000000000000000000000000000000000000000000000000000000000000000000000000000000000000000000000000080F997
:392EC2000000000000000000000000000000000000000000000000000000000000000000000000000000000000000000000000000000000000000080F95E
:392EFB000000000000000000000000000000000000000000000000000000000000000000000000000000000000000000000000000000000000000080F925
:392F34000000000000000000000000000000000000000000000000000000000000000000000000000000000000000000000000000000000000000080F9EB
:392F6D000000000000000000000000000000000000000000000000000000000000000000000000000000000000000000000000000000000000000080F9B2
:392FA6000000000000000000000000000000000000000000000000000000000000000000000000000000000000000000000000000000000000000080F979
:392FDF000000000000000000000000000000000000000000000000000000000000000000000000000000000000000000000000000000000000000080F940
:393018000000000000000000000000000000000000000000000000000000000000000000000000000000000000000000000000000000000000000080F906
:393051000000000000000000000000000000000000000000000000000000000000000000000000000000000000000000000000000000000000000080F9CD
:39308A000000000000000000000000000000000000000000000000000000000000000000000000000000000000000000000000000000000000000080F994
:3930C3000000000000000000000000000000000000000000000000000000000000000000000000000000000000000000000000000000000000000080F95B
:3930FC000000000000000000000000000000000000000000000000000000000000000000000000000000000000000000000000000000000000000080F922
:393135000000000000000000000000000000000000000000000000000000000000000000000000000000000000000000000000000000000000000080F9E8
:39316E000000000000000000000000000000000000000000000000000000000000000000000000000000000000000000000000000000000000000080F9AF
:3931A7000000000000000000000000000000000000000000000000000000000000000000000000000000000000000000000000000000000000000080F976
:3931E0000000000000000000000000000000000000000000000000000000000000000000000000000000000000000000000000000000000000000080F93D
:393219000000000000000000000000000000000000000000000000000000000000000000000000000000000000000000000000000000000000000080F903
:393252000000000000000000000000000000000000000000000000000000000000000000000000000000000000000000000000000000000000000080F9CA
:39328B000000000000000000000000000000000000000000000000000000000000000000000000000000000000000000000000000000000000000080F991
:3932C4000000000000000000000000000000000000000000000000000000000000000000000000000000000000000000000000000000000000000080F958
:3932FD000000000000000000000000000000000000000000000000000000000000000000000000000000000000000000000000000000000000000080F91F
:393336000000000000000000000000000000000000000000000000000000000000000000000000000000000000000000000000000000000000000080F9E5
:39336F000000000000000000000000000000000000000000000000000000000000000000000000000000000000000000000000000000000000000080F9AC
:3933A8000000000000000000000000000000000000000000000000000000000000000000000000000000000000000000000000000000000000000080F973
:3933E1000000000000000000000000000000000000000000000000000000000000000000000000000000000000000000000000000000000000000080F93A
:39341A000000000000000000000000000000000000000000000000000000000000000000000000000000000000000000000000000000000000000080F900
:393453000000000000000000000000000000000000000000000000000000000000000000000000000000000000000000000000000000000000000080F9C7
:39348C000000000000000000000000000000000000000000000000000000000000000000000000000000000000000000000000000000000000000080F98E
:3934C5000000000000000000000000000000000000000000000000000000000000000000000000000000000000000000000000000000000000000080F955
:3934FE000000000000000000000000000000000000000000000000000000000000000000000000000000000000000000000000000000000000000080F91C
:393537000000000000000000000000000000000000000000000000000000000000000000000000000000000000000000000000000000000000000080F9E2
:393570000000000000000000000000000000000000000000000000000000000000000000000000000000000000000000000000000000000000000080F9A9
:3935A9000000000000000000000000000000000000000000000000000000000000000000000000000000000000000000000000000000000000000080F970
:3935E2000800000000000000000000000000000000000000000000000000000000000000000000000000000000000000000000000000000000000020DBAD
:39361B000000000000000000000000000000000000000000000000000000000000000000000000000000000000000000000000000000000000000080F9FD
:393654000000000000000000000000000000000000000000000000000000000000000000000000000000000000000000000000000000000000000080F9C4
:39368D000400000000000000000000000000000000000000000000000000000000000000000000000000000000000000000000000000000000000090ACC4
:3936C6000000000000000000000000000000000000000000000000000000000000000000000000000000000000000000000000000000000000000080F952
:3936FF000000000000000000000000000000000000000000000000000000000000000000000000000000000000000000000000000000000000000080F919
:393738000000000000000000000000000000000000000000000000000000000000000000000000000000000000000000000000000000000000000080F9DF
:393771000000000000000000000000000000000000000000000000000000000000000000000000000000000000000000000000000000000000000080F9A6
:3937AA000800000000000000000000000000000000000000000000000000000000000000000000000000000000000000000000000000000000000020DBE3
:3937E3000000000000000000000000000000000000000000000000000000000000000000000000000000000000000000000000000000000000000080F934
:39381C000000000000000000000000000000000000000000000000000000000000000000000000000000000000000000000000000000000000000080F9FA
:393855000400000000000000000000000000000000000000000000000000000000000000000000000000000000000000000000000000000000000090ACFA
:39388E000000000000000000000000000000000000000000000000000000000000000000000000000000000000000000000000000000000000000080F988
:3938C7000000000000000000000000000000000000000000000000000000000000000000000000000000000000000000000000000000000000000080F94F
:393900000000000000000000000000000000000000000000000000000000000000000000000000000000000000000000000000000000000000000080F915
:393939000000000000000000000000000000000000000000000000000000000000000000000000000000000000000000000000000000000000000080F9DC
:393972000800000000000000000000000000000000000000000000000000000000000000000000000000000000000000000000000000000000000020DB19
:3939AB000000000000000000000000000000000000000000000000000000000000000000000000000000000000000000000000000000000000000080F96A
:3939E4000000000000000000000000000000000000000000000000000000000000000000000000000000000000000000000000000000000000000080F931
:393A1D000400000000000000000000000000000000000000000000000000000000000000000000000000000000000000000000000000000000000090AC30
:393A56000000000000000000000000000000000000000000000000000000000000000000000000000000000000000000000000000000000000000080F9BE
:393A8F000000000000000000000000000000000000000000000000000000000000000000000000000000000000000000000000000000000000000080F985
:393AC8000000000000000000000000000000000000000000000000000000000000000000000000000000000000000000000000000000000000000080F94C
:393B01000000000000000000000000000000000000000000000000000000000000000000000000000000000000000000000000000000000000000080F912
:393B3A000800000000000000000000000000000000000000000000000000000000000000000000000000000000000000000000000000000000000020DB4F
:393B73000000000000000000000000000000000000000000000000000000000000000000000000000000000000000000000000000000000000000080F9A0
:393BAC000000000000000000000000000000000000000000000000000000000000000000000000000000000000000000000000000000000000000080F967
:393BE5000400000000000000000000000000000000000000000000000000000000000000000000000000000000000000000000000000000000000090AC67
:393C1E000000000000000000000000000000000000000000000000000000000000000000000000000000000000000000000000000000000000000080F9F4
:393C57000000000000000000000000000000000000000000000000000000000000000000000000000000000000000000000000000000000000000080F9BB
:393C90000000000000000000000000000000000000000000000000000000000000000000000000000000000000000000000000000000000000000080F982
:393CC9000000000000000000000000000000000000000000000000000000000000000000000000000000000000000000000000000000000000000080F949
:393D02000800000000000000000000000000000000000000000000000000000000000000000000000000000000000000000000000000000000000020DB85
:393D3B000000000000000000000000000000000000000000000000000000000000000000000000000000000000000000000000000000000000000080F9D6
:393D74000000000000000000000000000000000000000000000000000000000000000000000000000000000000000000000000000000000000000080F99D
:393DAD000400000000000000000000000000000000000000000000000000000000000000000000000000000000000000000000000000000000000090AC9D
:393DE6000000000000000000000000000000000000000000000000000000000000000000000000000000000000000000000000000000000000000080F92B
:393E1F000000000000000000000000000000000000000000000000000000000000000000000000000000000000000000000000000000000000000080F9F1
:393E58000000000000000000000000000000000000000000000000000000000000000000000000000000000000000000000000000000000000000080F9B8
:393E91000000000000000000000000000000000000000000000000000000000000000000000000000000000000000000000000000000000000000080F97F
:393ECA000800000000000000000000000000000000000000000000000000000000000000000000000000000000000000000000000000000000000020DBBC
:393F03000000000000000000000000000000000000000000000000000000000000000000000000000000000000000000000000000000000000000080F90C
:393F3C000000000000000000000000000000000000000000000000000000000000000000000000000000000000000000000000000000000000000080F9D3
:393F75000400000000000000000000000000000000000000000000000000000000000000000000000000000000000000000000000000000000000090ACD3
:393FAE000000000000000000000000000000000000000000000000000000000000000000000000000000000000000000000000000000000000000080F961
:393FE7001000000000000000000000000000000000000000000000000000000000000000000000000000000000000000000000000000000000000080F819
:394020000000000000000000000000000000000000000000000000000000000000000000000000000000000000000000000000000000000000000080F9EE
:394059000000000000000000000000000000000000000000000000000000000000000000000000000000000000000000000000000000000000000080F9B5
:394092000C000000000000000000000000000000000000000000000000000000000000000000000000000000000000000000000000000000000000209F2A
:3940CB000400000000000000000000000000000000000000000000000000000000000000000000000000000000000000000000000000000000000080BD7B
:394104000000000000000000000000000000000000000000000000000000000000000000000000000000000000000000000000000000000000000080F909
:39413D000C00000000000000000000000000000000000000000000000000000000000000000000000000000000000000000000000000000000000010AC81
:394176000000000000000000000000000000000000000000000000000000000000000000000000000000000000000000000000000000000000000080F997
:3941AF000000000000000000000000000000000000000000000000000000000000000000000000000000000000000000000000000000000000000080F95E
:3941E8002000048000100002400008000120000480001000000000000000000000000000000000800010000240000800012000048000100002400080F9A1
:394221000000000000000000000000000000000000000000000000000000000000000000000000000000000000000000000000000000000000000080F9EB
:39425A002800048000100002400008000120000480001000000000000000000000000000000000800010000240000800012000048000100002400020DBA4
:394293000000000000000000000000000000000000000000000000000000000000000000000000000000000000000000000000000000000000000080F979
:3942CC002000048000100002400008000120000480001000000000000000000000000000000000800010000240000800012000048000100002400080F9BC
:394305000400000000000000000000000000000000000000000000000000000000000000000000000000000000000000000000000000000000000090AC3F
:39433E002000048000100002400008000120000480001000000000000000000000000000000000800010000240000800012000048000100002400080F949
:394377000000000000000000000000000000000000000000000000000000000000000000000000000000000000000000000000000000000000000080F994
:3943B0000000000000000000000000000000000000000000000000000000000000000000000000000000000000000000000000000000000000000080F95B
:3943E9000000000000000000000000000000000000000000000000000000000000000000000000000000000000000000000000000000000000000080F922
:394422000000000000000000000000000000000000000000000000000000000000000000000000000000000000000000000000000000000000000080F9E8
:39445B000000000000000000000000000000000000000000000000000000000000000000000000000000000000000000000000000000000000000080F9AF
:394494000000000000000000000000000000000000000000000000000000000000000000000000000000000000000000000000000000000000000080F976
:3944CD000000000000000000000000000000000000000000000000000000000000000000000000000000000000000000000000000000000000000080F93D
:394506000000000000000000000000000000000000000000000000000000000000000000000000000000000000000000000000000000000000000080F903
:39453F000000000000000000000000000000000000000000000000000000000000000000000000000000000000000000000000000000000000000080F9CA
:394578000000000000000000000000000000000000000000000000000000000000000000000000000000000000000000000000000000000000000080F991
:3945B1000000000000000000000000000000000000000000000000000000000000000000000000000000000000000000000000000000000000000080F958
:3945EA000000000000000000000000000000000000000000000000000000000000000000000000000000000000000000000000000000000000000080F91F
:394623000000000000000000000000000000000000000000000000000000000000000000000000000000000000000000000000000000000000000080F9E5
:39465C000000000000000000000000000000000000000000000000000000000000000000000000000000000000000000000000000000000000000080F9AC
:394695000000000000000000000000000000000000000000000000000000000000000000000000000000000000000000000000000000000000000080F973
:3946CE000000000000000000000000000000000000000000000000000000000000000000000000000000000000000000000000000000000000000080F93A
:394707000000000000000000000000000000000000000000000000000000000000000000000000000000000000000000000000000000000000000080F900
:394740000000000000000000000000000000000000000000000000000000000000000000000000000000000000000000000000000000000000000080F9C7
:394779000000000000000000000000000000000000000000000000000000000000000000000000000000000000000000000000000000000000000080F98E
:3947B2000000000000000000000000000000000000000000000000000000000000000000000000000000000000000000000000000000000000000080F955
:3947EB000000000000000000000000000000000000000000000000000000000000000000000000000000000000000000000000000000000000000080F91C
:394824000000000000000000000000000000000000000000000000000000000000000000000000000000000000000000000000000000000000000080F9E2
:39485D000400000000000000000040000000000000000000000000000000000000000000000000000000000000000000000000000000000000000080F965
:394896000000000000000000000000000000000000000000000000000000000000000000000000000000000000000000000000000000000000000080F970
:3948CF000000000000000000000010000000000000000000000000000000000000000000000000000000000000000000000000000000000000000080E838
:394908000000000000000000000000000000000000000000000000000000000000000000000000000000000000000000000000000000000000000080F9FD
:394941000000000000000000000000000000000000000000000000000000000000000000000000000000000000000000000000000000000000000080F9C4
:39497A000000000000000000000000000000000000000000000000000000000000000000000000000000000000000000000000000000000000000080F98B
:3949B3000000000000000000000000000000000000000000000000000000000000000000000000000000000000000000000000000000000000000080F952
:3949EC000000000000000000000000000000000000000000000000000000000000000000000000000000000000000000000000000000000000000080F919
:394A25000000000000000000000000000000000000000000000000000000000000000000000000000000000000000000000000000000000000000080F9DF
:394A5E000000000000000000000000000000000000000000000000000000000000000000000000000000000000000000000000000000000000000080F9A6
:394A97000000000000000000000000000000000000000000000000000000000000000000000000000000000000000000000000000000000000000080F96D
:394AD0000000000000000000000000000000000000000000000000000000000000000000000000000000000000000000000000000000000000000080F934
:394B09000000000000000000000000000000000000000000000000000000000000000000000000000000000000000000000000000000000000000080F9FA
:394B42000000000000000000000000000000000000000000000000000000000000000000000000000000000000000000000000000000000000000080F9C1
:394B7B000000000000000000000000000000000000000000000000000000000000000000000000000000000000000000000000000000000000000080F988
:394BB4000000000000000000000000000000000000000000000000000000000000000000000000000000000000000000000000000000000000000080F94F
:394BED000000000000000000000000000000000000000000000000000000000000000000000000000000000000000000000000000000000000000080F916
:394C26000000000000000000000000000000000000000000000000000000000000000000000000000000000000000000000000000000000000000080F9DC
:394C5F000008000000000000001000000000000000000005000000000000000000000000000000000000000000000000000000000000000000000000A05F
:394C980000A0000000000000004001000000000000000010000000000000000000000000000000000000000000000000000000000000000000000000DE14
:394CD1000000000000000000000000000000000000000000000000000000000000000000000000000000000000000000000000000000000000000080F931
:394D0A000000000000000000000000000000000000000000000000000000000000000000000000000000000000000000000000000000000000000080F9F7
:394D4300003DA0024800092001748004900012400248001D0000000000000000000000000000000048000920012480049000124002480009200124809FF2
:394D7C00A0493401300006C00098000360000C800130002600000000000000000000000000000000300006C00018000360000C8001300006C0001800F10F
:024DB500FFFFFE
:00000001FF
