:020000040000FA
:39000000FFFF62FF3600FFFFFFFFFFFFFFFFFFFFFFFFFFFFFFFFFFFFFFFFFFFFFFFFFFFFFFFFFFFFFFFFFFFFFFFFFFFFFFFFFFFFFFFFFFFFFFFFFFFFFF65
:39003900000C8001300006C00018000360000C800130000600000000000000000000000000000000300006C00018000360000C8001300006C0001880F948
:390072000012400248000920012480049000124002480009000000000000000000000000000000004800092001248004900012400248000920012480F9A5
:3900AB000000000000000000000000000000000000000000000000000000000000000000000000000000000000000000000000000000000000000080F9A3
:3900E4000000000000000000000000000000000000000000000000000000000000000000000000000000000000000000000000000000000000000080F96A
:39011D000000000000000000000000000000000000000000000000000000000000000000000000000000000000000000000000000000000000000080F930
:390156000000000000000000000000000000000000000000000000000000000000000100000000000000000000000000000000000000000000000080E807
:39018F000000000000000000000000000000000000000000000000000000000000000000000000000000000000000000000000000000000000000080F9BE
:3901C8000000000000000000000000000000000000000000000000000000000000000000000000000000000000000000000000000000000000000080F985
:390201000000000000000000000000000000000000000000000000000000000000000000000000000000000000000000000000000000000000000080F94B
:39023A000000000000000000000000000000000000000000000000000000000000000000000000000000000000000000000000000000000000000080F912
:390273000000000000000000000000000000000000000000000000000000000000000000000000000000000000000000000000000000000000000080F9D9
:3902AC000000000000000000000000000000000000000000000000000000000000000000000000000000000000000000000000000000000000000080F9A0
:3902E5000000000000000000000000000000000000000000000000000000000000000000000000000000000000000000000000000000000000000080F967
:39031E000000000000000000000000000000000000000000000000000000000000000000000000000000000000000000000000000000000000000080F92D
:390357000000000000000000000000000000000000000000000000000000000000000000000000000000000000000000000000000000000000000080F9F4
:390390000000000000000000000000000000000000000000000000000000000000000000000000000000000000000000000000000000000000000080F9BB
:3903C9000000000000000000000000000000000000000000000000000000000000000000000000000000000000000000000000000000000000000080F982
:390402000800000000000000000000000000000000000000000000000000000000000000000000000000000000000000000000000000000000000020DBBE
:39043B000000000000000000000000000000000000000000000000000000000000000000000000000000000000000000000000000000000000000080F90F
:390474000000000000000000000000000000000000000000000000000000000000000000000000000000000000000000000000000000000000000080F9D6
:3904AD000400000000000000000000000000000000000000000000000000000000000000000000000000000000000000000000000000000000000090ACD6
:3904E6000000000000000000000000000000000000000000000000000000000000000000000000000000000000000000000000000000000000000080F964
:39051F000000000000000000000000000000000000000000000000000000000000000000000000000000000000000000000000000000000000000080F92A
:390558000000000000000000000000000000000000000000000000000000000000000000000000000000000000000000000000000000000000000080F9F1
:390591000000000000000000000000000000000000000000000000000000000000000000000000000000000000000000000000000000000000000080F9B8
:3905CA000800000000000000000000000000000000000000000000000000000000000000000000000000000000000000000000000000000000000020DBF5
:390603000000000000000000000000000000000000000000000000000000000000000000000000000000000000000000000000000000000000000080F945
:39063C000000000000000000000000000000000000000000000000000000000000000000000000000000000000000000000000000000000000000080F90C
:390675000400000000000000000000000000000000000000000000000000000000000000000000000000000000000000000000000000000000000090AC0C
:3906AE000000000000000000000000000000000000000000000000000000000000000000000000000000000000000000000000000000000000000080F99A
:3906E7000000000000000000000000000000000000000000000000000000000000000000000000000000000000000000000000000000000000000080F961
:390720000000000000000000000000000000000000000000000000000000000000000000000000000000000000000000000000000000000000000080F927
:390759000000000000000000000000000000000000000000000000000000000000000000000000000000000000000000000000000000000000000080F9EE
:390792000800000000000000000000000000000000000000000000000000000000000000000000000000000000000000000000000000000000000020DB2B
:3907CB000000000000000000000000000000000000000000000000000000000000000000000000000000000000000000000000000000000000000080F97C
:390804000000000000000000000000000000000000000000000000000000000000000000000000000000000000000000000000000000000000000080F942
:39083D000400000000000000000000000000000000000000000000000000000000000000000000000000000000000000000000000000000000000090AC42
:390876000000000000000000000000000000000000000000000000000000000000000000000000000000000000000000000000000000000000000080F9D0
:3908AF000000000000000000000000000000000000000000000000000000000000000000000000000000000000000000000000000000000000000080F997
:3908E8000000000000000000000000000000000000000000000000000000000000000000000000000000000000000000000000000000000000000080F95E
:390921000000000000000000000000000000000000000000000000000000000000000000000000000000000000000000000000000000000000000080F924
:39095A000800000000000000000000000000000000000000000000000000000000000000000000000000000000000000000000000000000000000020DB61
:390993000000000000000000000000000000000000000000000000000000000000000000000000000000000000000000000000000000000000000080F9B2
:3909CC000000000000000000000000000000000000000000000000000000000000000000000000000000000000000000000000000000000000000080F979
:390A05000400000000000000000000000000000000000000000000000000000000000000000000000000000000000000000000000000000000000090AC78
:390A3E000000000000000000000000000000000000000000000000000000000000000000000000000000000000000000000000000000000000000080F906
:390A77000000000000000000000000000000000000000000000000000000000000000000000000000000000000000000000000000000000000000080F9CD
:390AB0000000000000000000000000000000000000000000000000000000000000000000000000000000000000000000000000000000000000000080F994
:390AE9000000000000000000000000000000000000000000000000000000000000000000000000000000000000000000000000000000000000000080F95B
:390B22000800000000000000000000000000000000000000000000000000000000000000000000000000000000000000000000000000000000000020DB97
:390B5B000000000000000000000000000000000000000000000000000000000000000000000000000000000000000000000000000000000000000080F9E8
:390B94000000000000000000000000000000000000000000000000000000000000000000000000000000000000000000000000000000000000000080F9AF
:390BCD000400000000000000000000000000000000000000000000000000000000000000000000000000000000000000000000000000000000000090ACAF
:390C06000000000000000000000000000000000000000000000000000000000000000000000000000000000000000000000000000000000000000080F93C
:390C3F000000000000000000000000000000000000000000000000000000000000000000000000000000000000000000000000000000000000000080F903
:390C78000000000000000000000000000000000000000000000000000000000000000000000000000000000000000000000000000000000000000080F9CA
:390CB1000000000000000000000000000000000000000000000000000000000000000000000000000000000000000000000000000000000000000080F991
:390CEA000800000000000000000000000000000000000000000000000000000000000000000000000000000000000000000000000000000000000020DBCE
:390D23000000000000000000000000000000000000000000000000000000000000000000000000000000000000000000000000000000000000000080F91E
:390D5C000000000000000000000000000000000000000000000000000000000000000000000000000000000000000000000000000000000000000080F9E5
:390D95000400000000000000000000000000000000000000000000000000000000000000000000000000000000000000000000000000000000000090ACE5
:390DCE000000000000000000000000000000000000000000000000000000000000000000000000000000000000000000000000000000000000000080F973
:390E07000000000000000000000000000000000000000000000000000000000000000000000000000000000000000000000000000000000000000080F939
:390E40000000000000000000000000000000000000000000000000000000000000000000000000000000000000000000000000000000000000000080F900
:390E79000000000000000000000000000000000000000000000000000000000000000000000000000000000000000000000000000000000000000080F9C7
:390EB2000800000000000000000000000000000000000000000000000000000000000000000000000000000000000000000000000000000000000020DB04
:390EEB000000000000000000000000000000000000000000000000000000000000000000000000000000000000000000000000000000000000000080F955
:390F24000000000000000000000000000000000000000000000000000000000000000000000000000000000000000000000000000000000000000080F91B
:390F5D000400000000000000000000000000000000000000000000000000000000000000000000000000000000000000000000000000000000000090AC1B
:390F96000000000000000000000000000000000000000000000000000000000000000000000000000000000000000000000000000000000000000080F9A9
:390FCF000000000000000000000000000000000000000000000000000000000000000000000000000000000000000000000000000000000000000080F970
:391008002000048000100002400008000120000480001000000000000000000000000000000000800010000240000800012000048000100002400080F9B2
:391041000000000000000000000000000000000000000000000000000000000000000000000000000000000000000000000000000000000000000080F9FD
:39107A002800048000100002400008000120000480001000000000000000000000000000000000800010000240000800012000048000100002400020DBB6
:3910B3000000000000000000000000000000000000000000000000000000000000000000000000000000000000000000000000000000000000000080F98B
:3910EC002000048000100002400008000120000480001000000000000000000000000000000000800010000240000800012000048000100002400080F9CE
:391125000400000000000000000000000000000000000000000000000000000000000000000000000000000000000000000000000000000000000090AC51
:39115E002000048000100002400008000120000480001000000000000000000000000000000000800010000240000800012000048000100002400080F95B
:391197000000000000000000000000000000000000000000000000000000000000000000000000000000000000000000000000000000000000000080F9A6
:3911D0000000000000000000000000000000000000000000000000000000000000000000000000000000000000000000000000000000000000000080F96D
:391209000000000000000000000000000000000000000000000000000000000000000000000000000000000000000000000000000000000000000080F933
:391242000000000000000000000000000000000000000000000000000000000000000000000000000000000000000000000000000000000000000080F9FA
:39127B000000000000000000000000000000000000000000000000000000000000000000000000000000000000000000000000000000000000000080F9C1
:3912B4000000000000000000000000000000000000000000000000000000000000000000000000000000000000000000000000000000000000000080F988
:3912ED000000000000000000000000000000000000000000000000000000000000000000000000000000000000000000000000000000000000000080F94F
:391326000000000000000000000000000000000000000000000000000000000000000000000000000000000000000000000000000000000000000080F915
:39135F000000000000000000000000000000000000000000000000000000000000000000000000000000000000000000000000000000000000000080F9DC
:391398000000000000000000000000000000000000000000000000000000000000000000000000000000000000000000000000000000000000000080F9A3
:3913D1000000000000000000000000000000000000000000000000000000000000000000000000000000000000000000000000000000000000000080F96A
:39140A000000000000000000000000000000000000000000000000000000000000000000000000000000000000000000000000000000000000000080F930
:391443000000000000000000000000000000000000000000000000000000000000000000000000000000000000000000000000000000000000000080F9F7
:39147C000000000000000000000000000000000000000000000000000000000000000000000000000000000000000000000000000000000000000080F9BE
:3914B5000000000000000000000000000000000000000000000000000000000000000000000000000000000000000000000000000000000000000080F985
:3914EE000000000000000000000000000000000000000000000000000000000000000000000000000000000000000000000000000000000000000080F94C
:391527000000000000000000000000000000000000000000000000000000000000000000000000000000000000000000000000000000000000000080F912
:391560000000000000000000000000000000000000000000000000000000000000000000000000000000000000000000000000000000000000000080F9D9
:391599000000000000000000000000000000000000000000000000000000000000000000000000000000000000000000000000000000000000000080F9A0
:3915D2000000000000000000000000000000000000000000000000000000000000000000000000000000000000000000000000000000000000000080F967
:39160B000000000000000000000000000000000000000000000000000000000000000000000000000000000000000000000000000000000000000080F92D
:391644000000000000000000000000000000000000000000000000000000000000000000000000000000000000000000000000000000000000000080F9F4
:39167D000000000000000000000000000000000000000000000000000000000000000000000000000000000000000000000000000000000000000080F9BB
:3916B6000000000000000000000000000000000000000000000000000000000000000000000000000000000000000000000000000000000000000080F982
:3916EF000000000000000000000000000000000000000000000000000000000000000000000000000000000000000000000000000000000000000080F949
:391728000000000000000000000000000000000000000000000000000000000000000000000000000000000000000000000000000000000000000080F90F
:391761000000000000000000000000000000000000000000000000000000000000000000000000000000000000000000000000000000000000000080F9D6
:39179A000000000000000000000000000000000000000000000000000000000000000000000000000000000000000000000000000000000000000080F99D
:3917D3000000000000000000000000000000000000000000000000000000000000000000000000000000000000000000000000000000000000000080F964
:39180C000000000000000000000000000000000000000000000000000000000000000000000000000000000000000000000000000000000000000080F92A
:391845000000000000000000000000000000000000000000000000000000000000000000000000000000000000000000000000000000000000000080F9F1
:39187E000000000000000000000000000000000000000000000000000000000000000000000000000000000000000000000000000000000000000080F9B8
:3918B7000000000000000000000000000000000000000000000000000000000000000000000000000000000000000000000000000000000000000080F97F
:3918F0000000000000000000000000000000000000000000000000000000000000000000000000000000000000000000000000000000000000000080F946
:391929000000000000000000000000000000000000000000000000000000000000000000000000000000000000000000000000000000000000000080F90C
:391962000000000000000000000000000000000000000000000000000000000000000000000000000000000000000000000000000000000000000080F9D3
:39199B000000000000000000000000000000000000000000000000000000000000000000000000000000000000000000000000000000000000000080F99A
:3919D4000000000000000000000000000000000000000000000000000000000000000000000000000000000000000000000000000000000000000080F961
:391A0D000000000000000000000000000000000000000000000000000000000000000000000000000000000000000000000000000000000000000080F927
:391A46000000000000000000000000000000000000000000000000000000000000000000000000000000000000000000000000000000000000000080F9EE
:391A7F000000000000000000000000000000000000000000000000000000000000000000000000000000000000000000000000000000000000000080F9B5
:391AB8000000000000000000000000000000000000000000000000000000000000000000000000000000000000000000000000000000000000000080F97C
:391AF1000000000000000000000000000000000000000000000000000000000000000000000000000000000000000000000000000000000000000080F943
:391B2A000000000000000000000000000000000000000000000000000000000000000000000000000000000000000000000000000000000000000080F909
:391B63000000000000000000000000000000000000000000000000000000000000000000000000000000000000000000000000000000000000000080F9D0
:391B9C000000000000000000000000000000000000000000000000000000000000000000000000000000000000000000000000000000000000000080F997
:391BD5000000000000000000000000000000000000000000000000000000000000000000000000000000000000000000000000000000000000000080F95E
:391C0E000000000000000000000000000000000000000000000000000000000000000000000000000000000000000000000000000000000000000080F924
:391C47000000000000000000000000000000000000000000000000000000000000000000000000000000000000000000000000000000000000000080F9EB
:391C80000000000000000000000000000000000000000000000000000000000000000000000000000000000000000000000000000000000000000080F9B2
:391CB9000000000000000000000000000000000000000000000000000000000000000000000000000000000000000000000000000000000000000080F979
:391CF2000800000000000000000000000000000000000000000000000000000000000000000000000000000000000000000000000000000000000020DBB6
:391D2B000000000000000000000000000000000000000000000000000000000000000000000000000000000000000000000000000000000000000080F906
:391D64000000000000000000000000000000000000000000000000000000000000000000000000000000000000000000000000000000000000000080F9CD
:391D9D000400000000000000000000000000000000000000000000000000000000000000000000000000000000000000000000000000000000000090ACCD
:391DD6000000000000000000000000000000000000000000000000000000000000000000000000000000000000000000000000000000000000000080F95B
:391E0F001000008022020000000000000000000000000000000000000000000000000000000000000000000000000000000000000000000000000080F076
:391E48000000000004000000000000000000000000000000000000000000000000000000000000000000000000000000000000000000000000000080B924
:391E81000000008003000000000000000000000000000000000000000000000000000000000000000000000000000000000000000000000000000080C164
:391EBA000C00008004000000000000000000000000000000000000000000000000000000000000000000000000000000000000000000000000000020D768
:391EF30004000000020000000000000000000000000000000000000000000000000000000000000000000000000000000000000000000000000000809D93
:391F2C000000008005000000000000000000000000000000000000000000000000000000000000000000000000000000000000000000000000000080A1D6
:391F65000C000000020000000000000000000000000000000000000000000000000000000000000000000000000000000000000000000000000000108C99
:391F9E000000000004000000000000000000000000000000000000000000000000000000000000000000000000000000000000000000000000000080B9CD
:391FD7000000000000000000400904000000000000000000000000000000000000000000000000000000000000000000000000000000000000000000E89C
:392010000000000000000000000200000000000000000000000000000000000000000000000000000000000000000000000000000000000000000080DB3A
:392049000000000000000000C00100000000000000000000000000000000000000000000000000000000000000000000000000000000000000000000A0FD
:392082000800000000000000400200000000000000000000000000000000000000000000000000000000000000000000000000000000000000000020B902
:3920BB000000000000000000000100000000000000000000000000000000000000000000000000000000000000000000000000000000000000000080E883
:3920F4000000000000000000C00200000000000000000000000000000000000000000000000000000000000000000000000000000000000000000000935E
:39212D000400000000000000000100000000000000000000000000000000000000000000000000000000000000000000000000000000000000000090BD27
:392166000000000000000000000200000000000000000000000000000000000000000000000000000000000000000000000000000000000000000080DBE3
:39219F001000000000000000000000000000000000000000000000000000000000000000000000000000000000000000000000000000000000000080F87F
:3921D8000000000000000000000000000000000000000000000000000000000000000000000000000000000000000000000000000000000000000080F955
:392211000000000000000000000000000000000000000000000000000000000000000000000000000000000000000000000000000000000000000080F91B
:39224A000C000000000000000000000000000000000000000000000000000000000000000000000000000000000000000000000000000000000000209F90
:392283000400000000000000000000000000000000000000000000000000000000000000000000000000000000000000000000000000000000000080BDE1
:3922BC000000000000000000000000000000000000000000000000000000000000000000000000000000000000000000000000000000000000000080F970
:3922F5000C00000000000000000000000000000000000000000000000000000000000000000000000000000000000000000000000000000000000010ACE8
:39232E000000000000000000000000000000000000000000000000000000000000000000000000000000000000000000000000000000000000000080F9FD
:392367000000000000000000000000000000000000000000000000000000000000000000000000000000000000000000000000000000000000000080F9C4
:3923A0000000000000000000000000000000000000000000000000000000000000000000000000000000000000000000000000000000000000000080F98B
:3923D9000000000000000000000000000000000000000000000000000000000000000000000000000000000000000000000000000000000000000080F952
:392412000800000000000000000000000000000000000000000000000000000000000000000000000000000000000000000000000000000000000020DB8E
:39244B000000000000000000000000000000000000000000000000000000000000000000000000000000000000000000000000000000000000000080F9DF
:392484000000000000000000000000000000000000000000000000000000000000000000000000000000000000000000000000000000000000000080F9A6
:3924BD000400000000000000000000000000000000000000000000000000000000000000000000000000000000000000000000000000000000000090ACA6
:3924F6000000000000000000000000000000000000000000000000000000000000000000000000000000000000000000000000000000000000000080F934
:39252F000000000000000000000000000000000000000000000000000000000000000000000000000000000000000000000000000000000000000080F9FA
:392568000000000000000000000000000000000000000000000000000000000000000000000000000000000000000000000000000000000000000080F9C1
:3925A1000000000000000000000000000000000000000000000000000000000000000000000000000000000000000000000000000000000000000080F988
:3925DA000800000000000000000000000000000000000000000000000000000000000000000000000000000000000000000000000000000000000020DBC5
:392613000000000000000000000000000000000000000000000000000000000000000000000000000000000000000000000000000000000000000080F915
:39264C000000000000000000000000000000000000000000000000000000000000000000000000000000000000000000000000000000000000000080F9DC
:392685000400000000000000000000000000000000000000000000000000000000000000000000000000000000000000000000000000000000000090ACDC
:3926BE000000000000000000000000000000000000000000000000000000000000000000000000000000000000000000000000000000000000000080F96A
:3926F7000000000000000000000000000000000000000000000000000000000000000000000000000000000000000000000000000000000000000080F931
:392730000000000000000000000000000000000000000000000000000000000000000000000000000000000000000000000000000000000000000080F9F7
:392769000000000000000000000000000000000000000000000000000000000000000000000000000000000000000000000000000000000000000080F9BE
:3927A2000800000000000000000000000000000000000000000000000000000000000000000000000000000000000000000000000000000000000020DBFB
:3927DB000000000000000000000000000000000000000000000000000000000000000000000000000000000000000000000000000000000000000080F94C
:392814000000000000000000000000000000000000000000000000000000000000000000000000000000000000000000000000000000000000000080F912
:39284D000400000000000000000000000000000000000000000000000000000000000000000000000000000000000000000000000000000000000090AC12
:392886000000000000000000000000000000000000000000000000000000000000000000000000000000000000000000000000000000000000000080F9A0
:3928BF000000000000000000000000000000000000000000000000000000000000000000000000000000000000000000000000000000000000000080F967
:3928F8002000048000100002400008000120000480001000000000000000000000000000000000800010000240000800012000048000100002400080F9AA
:392931000000000000000000000000000000000000000000000000000000000000000000000000000000000000000000000000000000000000000080F9F4
:39296A002800048000100002400008000120000480001000000000000000000000000000000000800010000240000800012000048000100002400020DBAD
:3929A30000000000040000000002000000000000000000000000000000000000000000000000000000000000000000000000000000000000000000809BDA
:3929DC002000040000100002000008000120000480001000000000000000000000000000000000800010000240000800012000048000100002400080B1CD
:392A15000400000000000000000000000000000000000000000000000000000000000000000000000000000000000000000000000000000000000090AC48
:392A4E002000048000100002400008000120000480001000000000000000000000000000000000800010000240000800012000048000100002400080F952
:392A87000000000000000000000000000000000000000000000000000000000000000000000000000000000000000000000000000000000000000080F99D
:392AC0000000000000000000000000000000000000000000000000000000000000000000000000000000000000000000000000000000000000000080F964
:392AF9000000000000000000000000000000000000000000000000000000000000000000000000000000000000000000000000000000000000000080F92B
:392B32000800000000000000000000000000000000000000000000000000000000000000000000000000000000000000000000000000000000000000F969
:392B6B000000000000000000000000000000000000000000000000000000000000000000000000000000000000000000000000000000000000000080F9B8
:392BA4000000000000000000000000000000000000000000000000000000000000000000000000000000000000000000000000000000000000000080F97F
:392BDD000000000000000000000000000000000000000000000000000000000000000000000000000000000000000000000000000000000000000080F946
:392C16000000000000000000000000000000000000000000000000000000000000000000000000000000000000000000000000000000000000000080F90C
:392C4F000000000000000000000000000000000000000000000000000000000000000000000000000000000000000000000000000000000000000080F9D3
:392C88000200000000002830000000000000000000000000000000000000000000000000000000000000000000000000000000000000000000000000EACF
:392CC1000000000000002000000000000000000000000000000000000000000000000000000000000000000000000000000000000000000000000080FB3F
:392CFA000200000000000008000000000000000000000000000000000000000000000000000000000000000000000000000000000000000000000000D3C4
:392D33000000000000000000000000000000000000000000000000000000000000000000000000000000000000000000000000000000000000000080F9EE
:392D6C000000000000000000000000000000000000000000000000000000000000000000000000000000000000000000000000000000000000000080F9B5
:392DA5000000000000000000000000000000000000000000000000000000000000000000000000000000000000000000000000000000000000000080F97C
:392DDE000000000000000000000000000000000000000000000000000000000000000000000000000000000000000000000000000000000000000080F943
:392E17000000000000000000000000000000000000000000000000000000000000000000000000000000000000000000000000000000000000000080F909
:392E50000000000000000000000000000000000000000000000000000000000000000000000000000000000000000000000000000000000000000080F9D0
:392E89000000000000000000000000000000000000000000000000000000000000000000000000000000000000000000000000000000000000000080F997
:392EC2000000000002000000000000000000000000000000000000000000000000000000000000000000000000000000000000000000000000000080D97C
:392EFB000000000000000000000004000000000000000000000000000000000000000000000000000000000000000000000000000000000000000080B961
:392F34000000000000000000000000000000000000000000000000000000000000000000000000000000000000000000000000000000000000000080F9EB
:392F6D000000000000000000000000000000000000000000000000000000000000000000000000000000000000000000000000000000000000000080F9B2
:392FA6000000000000000000000000000000000000000000000000000000000000000000000000000000000000000000000000000000000000000080F979
:392FDF000000000000000000000000000000000000000000000000000000000000000000000000000000000000000000000000000000000000000080F940
:393018000000000000000000000000000000000000000000000000000000000000000000000000000000000000000000000000000000000000000080F906
:393051000000000000000000000000000000000000000000000000000000000000000000000000000000000000000000000000000000000000000080F9CD
:39308A000000000000000000000000000000000000000000000000000000000000000000000000000000000000000000000000000000000000000080F994
:3930C3000000000000000000000000000000000000000000000000000000000000000000000000000000000000000000000000000000000000000080F95B
:3930FC000000000000000000000000000000000000000000000000000000000000000000000000000000000000000000000000000000000000000080F922
:393135000000000000000000000000000000000000000000000000000000000000000000000000000000000000000000000000000000000000000080F9E8
:39316E000000000000000000000000000000000000000000000000000000000000000000000000000000000000000000000000000000000000000080F9AF
:3931A7000000000000000000000000000000000000000000000000000000000000000000000000000000000000000000000000000000000000000080F976
:3931E0000000000000000000000000000000000000000000000000000000000000000000000000000000000000000000000000000000000000000080F93D
:393219000000000000000000000000000000000000000000000000000000000000000000000000000000000000000000000000000000000000000080F903
:393252000000000000000000000000000000000000000000000000000000000000000000000000000000000000000000000000000000000000000080F9CA
:39328B000000000000000000000000000000000000000000000000000000000000000000000000000000000000000000000000000000000000000080F991
:3932C4000000000000000000000000000000000000000000000000000000000000000000000000000000000000000000000000000000000000000080F958
:3932FD000000000000000000000000000000000000000000000000000000000000000000000000000000000000000000000000000000000000000080F91F
:393336000000000000000000000000000000000000000000000000000000000000000000000000000000000000000000000000000000000000000080F9E5
:39336F0000000080C2000000000000000000000000000000000000000000000000000000000000000000000000000000000000000000000000000000954E
:3933A8000000000004000000000000000000000000000000000000000000000000000000000000000000000000000000000000000000000000000080B9AF
:3933E1000000008003000000000000000000000000000000000000000000000000000000000000000000000000000000000000000000000000000080C1EF
:39341A000000008004000000000000000000000000000000000000000000000000000000000000000000000000000000000000000000000000000080B1C4
:393453000000000002000000000000000000000000000000000000000000000000000000000000000000000000000000000000000000000000000080D9E5
:39348C000000008005000000000000000000000000000000000000000000000000000000000000000000000000000000000000000000000000000080A161
:3934C5000000000002000000000000000000000000000000000000000000000000000000000000000000000000000000000000000000000000000080D973
:3934FE000000000004000000000000000000000000000000000000000000000000000000000000000000000000000000000000000000000000000080B958
:393537000000000000000000000000000000000000000000000000000000000000000000000000000000000000000000000000000000000000000080F9E2
:393570000000000000000000000000000000000000000000000000000000000000000000000000000000000000000000000000000000000000000080F9A9
:3935A9000000000000000000000000000000000000000000000000000000000000000000000000000000000000000000000000000000000000000080F970
:3935E2000800000000000000000000000000000000000000000000000000000000000000000000000000000000000000000000000000000000000020DBAD
:39361B000000000000000000000000000000000000000000000000000000000000000000000000000000000000000000000000000000000000000080F9FD
:393654000000000000000000000000000000000000000000000000000000000000000000000000000000000000000000000000000000000000000080F9C4
:39368D000400000000000000000000000000000000000000000000000000000000000000000000000000000000000000000000000000000000000090ACC4
:3936C6000000000000000000000000000000000000000000000000000000000000000000000000000000000000000000000000000000000000000080F952
:3936FF000000000000000000000000000000000000000000000000000000000000000000000000000000000000000000000000000000000000000080F919
:393738000000000000000000000000000000000000000000000000000000000000000000000000000000000000000000000000000000000000000080F9DF
:393771000000000000000000000000000000000000000000000000000000000000000000000000000000000000000000000000000000000000000080F9A6
:3937AA000800000000000000000000000000000000000000000000000000000000000000000000000000000000000000000000000000000000000020DBE3
:3937E3000000000000000000000000000000000000000000000000000000000000000000000000000000000000000000000000000000000000000080F934
:39381C000000000000000000000000000000000000000000000000000000000000000000000000000000000000000000000000000000000000000080F9FA
:393855000400000000000000000000000000000000000000000000000000000000000000000000000000000000000000000000000000000000000090ACFA
:39388E000000000000000000000000000000000000000000000000000000000000000000000000000000000000000000000000000000000000000080F988
:3938C7000000000000000000000000000000000000000000000000000000000000000000000000000000000000000000000000000000000000000080F94F
:393900000000000000000000000000000000000000000000000000000000000000000000000000000000000000000000000000000000000000000080F915
:393939000000000000000000000000000000000000000000000000000000000000000000000000000000000000000000000000000000000000000080F9DC
:393972000800000000000000000000000000000000000000000000000000000000000000000000000000000000000000000000000000000000000020DB19
:3939AB000000000000000000000000000000000000000000000000000000000000000000000000000000000000000000000000000000000000000080F96A
:3939E4000000000000000000000000000000000000000000000000000000000000000000000000000000000000000000000000000000000000000080F931
:393A1D000400000000000000000000000000000000000000000000000000000000000000000000000000000000000000000000000000000000000090AC30
:393A56000000000000000000000000000000000000000000000000000000000000000000000000000000000000000000000000000000000000000080F9BE
:393A8F001000000000000000000000000000000000000000000000000000000000000000000000000000000000000000000000000000000000000080F876
:393AC8000000000000000000000000000000000000000000000000000000000000000000000000000000000000000000000000000000000000000080F94C
:393B01000000000000000000000000000000000000000000000000000000000000000000000000000000000000000000000000000000000000000080F912
:393B3A000C000000000000000000000000000000000000000000000000000000000000000000000000000000000000000000000000000000000000209F87
:393B73000400000000000000000000000000000000000000000000000000000000000000000000000000000000000000000000000000000000000080BDD8
:393BAC000000000000000000000000000000000000000000000000000000000000000000000000000000000000000000000000000000000000000080F967
:393BE5000C00000000000000000000000000000000000000000000000000000000000000000000000000000000000000000000000000000000000010ACDF
:393C1E000000000000000000000000000000000000000000000000000000000000000000000000000000000000000000000000000000000000000080F9F4
:393C57000000000000000000000000000000000000000000000000000000000000000000000000000000000000000000000000140100000000000080FCA3
:393C90000000000000000000000000000000000000000000000000000000000000000000000000000000000000000000000000201000000000000080D873
:393CC90000000000000000000000000000000000000000000000000000000000000000000000000000000000000000000000001C0000000000000080E541
:393D02000800000000000000000000000000000000000000000000000000000000000000000000000000000000000000000000240000000000000020FF3D
:393D3B000000000000000000000000000000000000000000000000000000000000000000000000000000000000000000000000100000000000000080E9D6
:393D740000000000000000000000000000000000000000000000000000000000000000000000000000000000000000000000002C0000000000000080D595
:393DAD000400000000000000000000000000000000000000000000000000000000000000000000000000000000000000000000100000000000000090BC7D
:393DE6000000000000000000000000000000000000000000000000000000000000000000000000000000000000000000000000200000000000000080D92B
:393E1F0000000000000000000000000000000000000000000000000000000000000000000000000000000000000000000000000000000000000000C0BDED
:393E58000000000000000000000000000000000000000000000000000000000000000000000000000000000000000000000000000000000000000080F9B8
:393E91000000000000000000000000000000000000000000000000000000000000000000000000000000000000000000000000000000000000000080F97F
:393ECA000800000000000000000000000000000000000000000000000000000000000000000000000000000000000000000000000000000000000030CABD
:393F03000000000000000000000000000000000000000000000000000000000000000000000000000000000000000000000000000000000000000090E80D
:393F3C000000000000000000000000000000000000000000000000000000000000000000000000000000000000000000000000000000000000000080F9D3
:393F750004000000000000000000000000000000000000000000000000000000000000000000000000000000000000000000000000000000000000B08ED1
:393FAE000000000000000000000000000000000000000000000000000000000000000000000000000000000000000000000000000000000000000080F961
:393FE7000000000000000000000000000000000000000000000000000000000000000000000000000000000000000000000000000000000000000080F928
:394020000000000000000000000000000000000000000000000000000000000000000000000000000000000000000000000000000000000000000080F9EE
:394059000000000000000000000000000000000000000000000000000000000000000000000000000000000000000000000000000000000000000080F9B5
:394092000800000000000000000000000000000000000000000000000000000000000000000000000000000000000000000000000000000000000020DBF2
:3940CB000000000000000000000000000000000000000000000000000000000000000000000000000000000000000000000000000000000000000080F943
:394104000000000000000000000000000000000000000000000000000000000000000000000000000000000000000000000000000000000000000080F909
:39413D000400000000000000000000000000000000000000000000000000000000000000000000000000000000000000000000000000000000000090AC09
:394176000000000000000000000000000000000000000000000000000000000000000000000000000000000000000000000000000000000000000080F997
:3941AF000000000000000000000000000000000000000000000000000000000000000000000000000000000000000000000000000000000000000080F95E
:3941E8002000048000100002400008000120000480001000000000000000000000000000000000800010000240000800012000048000100002400080F9A1
:394221000000000000000000000000000000000000000000000000000000000000000000000000000000000000000000000000000000000000000080F9EB
:39425A002800048000100002400008000120000480001000000000000000000000000000000000800010000240000800012000048000100002400020DBA4
:39429300000000000400000000000000000000000000000000000000000000000000000000000000000000000000000000000020000000000000008099B5
:3942CC002000040000100002400008000120000480001000000000000000000000000000000000800010000240000800012000008000100002400080F544
:394305000400000000000000000000000000000000000000000000000000000000000000000000000000000000000000000000000000000000000090AC3F
:39433E002000048000100002400008000120000480001000000000000000000000000000000000800010000240000800012000048000100002400080F949
:394377000000000000000000000000000000000000000000000000000000000000000000000000000000000000000000000000000000000000000080F994
:3943B0000000000000000000000000000000000000000000000000000000000000000000000000000000000000000000000000000000000000000080F95B
:3943E9000000000000000000000000000000000000000000000000000000000000000000000000000000000000000000000000000000000000000080F922
:394422000000000000000000000000000000000000000000000000000000000000000000000000000000000000000000000000000000000000000080F9E8
:39445B000200000000000000000000000000000000000000000000000000000000000000000000000000000000000000000000000000000000000080DBCB
:394494000000000000000000000000000000000000000000000000000000000000000000000000000000000000000000000000000000000000000080F976
:3944CD000000000000000000000000000000000000000000000000000000000000000000000000000000000000000000000000000000000000000080F93D
:394506000000000000000000000000000000000000000000000000000000000000000000000000000000000000000000000000000000000000000080F903
:39453F000000000000000000000000000000000000000000000000000000000000000000000000000000000000000000000000000000000000000080F9CA
:394578000000000000400100000000000000000000000000000000000000000000000000000000000000000000000000000000000000000000000080A8A1
:3945B1000000000000400000000000000000000000000000000000000000000000000000000000000000000000000000000000000000000000000080B958
:3945EA000200000000000000000000000000000000000000000000000000000000000000000000000000000000000000000000000000000000000080DB3B
:394623000000000000000000000000000000000000000000000000000000000000000000000000000000000000000000000000000000000000000080F9E5
:39465C000000000000000000000000000000000000000000000000000000000000000000000000000000000000000000000000000000000000000080F9AC
:394695000000000000000000000000000000000000000000000000000000000000000000000000000000000000000000000000000000000000000080F973
:3946CE000000000000000000000000000000000000000000000000000000000000000000000000000000000000000000000000000000000000000080F93A
:394707000000000000000000000000000000000000000000000000000000000000000000000000000000000000000000000000000000000000000080F900
:394740000000000000000000000000000000000000000000000000000000000000000000000000000000000000000000000000000000000000000080F9C7
:394779000000000000000000000000000000000000000000000000000000000000000000000000000000000000000000000000200000000000000080D98E
:3947B2000000000000000000000000000000000000000000000000000000000000000000000000000000000000000000000000000000000000000080F955
:3947EB000000008000000000000000000000000000000000000000000000000000000000000000000000000000000000000000000000000000000080F1A4
:394824000000000000000000000000000000000000000000000000000000000000000000000000000000000000000000000000000000000000000080F9E2
:39485D000000000000000000000000000000000000000000000000000000000000000000000000000000000000000000000000000000000000000080F9A9
:394896000000000000000000000000000000000000000000000000000000000000000000000000000000000000000000000000000000000000000080F970
:3948CF000000000000000000000000000000000000000000000000000000000000000000000000000000000000000000000000000000000000000080F937
:394908000000000000000000000000000000000000000000000000000000000000000000000000000000000000000000000000000800000000000020DB73
:394941000000000000000000000000000000000000000000000000000000000000000000000000000000000000000000000000000800000000000000F93C
:39497A000000000000000000000000000000000000000000000000000000000000000000000000000000000000000000000000000000000000000080F98B
:3949B3000000000000000000000000000000000000000000000000000000000000000000000000000000000000000000000000000000000000000080F952
:3949EC000000000000000000000000000000000000000000000000000000000000000000000000000000000000000000000000000000000000000080F919
:394A25000000000000000000000000000000000000000000000000000000000000000000000000000000000000000000000000000000000000000080F9DF
:394A5E000000000000000000000000000000000000000000000000000000000000000000000000000000000000000000000000000000000000000080F9A6
:394A97000000000000000000000000000000000000000000000000000000000000000000000000000000000000000000000000000000000000000080F96D
:394AD0000000000000000000000000000000000000000000000000000000000000000000000000000000000000000000000000000000000000000080F934
:394B09000000000000000000000000000000000000000000000000000000000000000000000000000000000000000000000000000000000000000080F9FA
:394B42000000000000000000000000000000000000000000000000000000000000000000000000000000000000000000000000000000000000000080F9C1
:394B7B000000000000000000000000000000000000000000000000000000000000000000000000000000000000000000000000000000000000000080F988
:394BB4000000000000000000000000000000000000000000000000000000000000000000000000000000000000000000000000000000000000000080F94F
:394BED0000000000000000000000000000000000000000000000000000000000000000000000000000000000000000000000000000000000000000A0DB14
:394C26000000000000000000000000000000000000000000000000000000000000000000000000000000000000000000000000000000000000000080F9DC
:394C5F000000000000000000000000000000000000000000000000000000000000000000000000000000000000000000000000000000000000000080F9A3
:394C98000000000000000000000000000000000000000000000000000000000000000000000000000000000000000000000000000000000000000080F96A
:394CD1000000000000000000000000000000000000000000000000000000000000000000000000000000000000000000000000000000000000000080F931
:394D0A000000000000000000000000000000000000000000000000000000000000000000000000000000000000000000000000000000000000000080F9F7
:394D43000012400248000920012480049000124002480009000000000000000000000000000000004800092001248004900012400248000920012480F987
:394D7C00000C8001300006C00018000360000C800130000600000000000000000000000000000000300006C00018000360000C8001300006C0001880F9B8
:024DB500FFFFFE
:00000001FF
